:020000040800F2
:10000000681200209D010008A5010008A701000852
:10001000A9010008AB010008AD01000800000000C4
:100020000000000000000000000000009F2A0008FF
:10003000B1010008000000003D290008A12A0008C5
:10004000B7010008B7010008B7010008B7010008B0
:10005000B7010008B7010008B7010008B7010008A0
:10006000B7010008B7010008B7010008B701000890
:10007000B7010008B7010008B7010008B701000880
:10008000B7010008B7010008B7010008B701000870
:10009000B7010008B7010008B7010008B701000860
:1000A000B7010008B7010008B7010008B701000850
:1000B000B7010008B7010008B7010008B701000840
:1000C000B7010008B7010008B7010008B701000830
:1000D000B7010008B7010008B7010008B701000820
:1000E000B7010008B7010008B7010008B701000810
:1000F000B7010008B7010008B7010008B701000800
:10010000000000000000000000000000B70100082F
:10011000B7010008B7010008B7010008B7010008DF
:10012000B7010008B7010008B7010008B7010008CF
:10013000B7010008B701000800000000000000003F
:10014000B7010008B7010008B7010008000000006F
:10015000000000000000000000000000000000009F
:100160000000000000000000B7010008B70100080F
:10017000B7010008000000000000000000000000BF
:1001800000000000B7010008DFF80CD000F024FAEE
:1001900000480047F14000086812002006488047E8
:1001A00006480047FEE7FEE7FEE7FEE7FEE7FEE75C
:1001B000FEE7FEE7FEE7FEE7AD2B00088901000839
:1001C000202A04DB203A21FA02F00021704721FAAC
:1001D00002F3D040C2F12002914008431946704713
:1001E00040EA01039B0703D009E008C9121F08C0B9
:1001F000042AFAD203E011F8013B00F8013B521E39
:10020000F9D27047D2B201E000F8012B491EFBD2AF
:1002100070470022F6E710B513460A460446194611
:10022000FFF7F0FF204610BD30B50446002003461E
:1002300000E05B1C934203D2E05CCD5C401BF8D035
:1002400030BD2DE9FE4F81EA030404F0004421F0A3
:10025000004100944FF0000B23F0004350EA0104EA
:100260005ED052EA03045BD0C3F30A54C1F30A55CB
:100270002C44A4F2F3340194A0FB0254C1F3130103
:1002800041F48011C3F3130343F4801301FB0244D0
:1002900000FB034E840A970A44EA815447EA8357D5
:1002A000A4FB076802958D0A05FB07854FEA932C8E
:1002B00004FB0C542705029D4FEA065847EA1637FF
:1002C000B5EB08056EEB070C870E920E47EA811717
:1002D00042EA8312A7FB0201B6EB0B0164EB0004B8
:1002E0002B0D43EA0C335E1844EB1C50DA465146A2
:1002F000E7FB0201C5F313044FEA0B3343EA14533F
:100300004FEA0432019C43EA0603A4F10C04029470
:10031000009CCDE900B400F010F903B0BDE8F08F07
:1003200000200146F9E72DE9F04D81EA030404F0CD
:10033000004B21F0004514464FF0000A23F0004125
:1003400050EA050220D054EA01021DD0C5F30A5735
:100350000246C5F31303C1F31300C1F30A5640F478
:10036000801543F48013A7EB0608101BD64608F24D
:10037000FD3873EB050002D308F1010801E0921883
:100380005B41B8F1000F03DA00200146BDE8F08DB3
:1003900000204FF48011064684460EE0171B73EBD5
:1003A000050705D3121B63EB050306434CEA010C5A
:1003B00049084FEA300092185B4150EA0107EDD13D
:1003C00052EA030012D082EA040083EA05010843DE
:1003D00005D0101BAB4106D20122002306E000220B
:1003E0004FF0004302E06FF0010253101AEB0600D9
:1003F0004CEB085110EB0A0041EB0B01BDE8F04D4E
:1004000000F08CB80EB540F2334102910021CDE9E5
:1004100000110A460B4600F090F803B000BDC1F38E
:100420000A5210B5C1F3130140F2FF3341F48011B9
:100430009A4201DA002010BD40F233439A42A2F200
:10044000334203DC5242FFF7BBFE10BD904010BDAB
:1004500000F0004230F000400AD0C10D01F560719B
:10046000C0F3160042EA0151C20840071143704729
:1004700000200146704701F0004330B421F00041F4
:1004800050EA010206D00A0DA2F56072C1F3130111
:10049000002A02DC30BC00207047440F44EAC1044B
:1004A000C100E01830BC00EBC250AFF3008000295F
:1004B000A8BF7047401C490008BF20F001007047EA
:1004C00010B4B0FA80FC00FA0CF050EA010404BF4A
:1004D00010BC704749B1CCF1200421FA04F411FAA0
:1004E0000CF118BF012121430843A3EB0C01CB1DE4
:1004F0004FEA00614FEA102042BF002010BC704755
:1005000000EBC35010440029A4BF10BC7047401C2E
:10051000490008BF20F0010010BC704710B5141E40
:1005200073F1000408DA401C41F1000192185B41AC
:100530001A4301D120F0010010BD2DE9F04D924683
:100540009B4611B1B1FA81F202E0B0FA80F220329A
:10055000904600F053F804460F4640EA0A0041EA8C
:100560000B0153465A46084313D0114653EA010083
:1005700019D0C8F140025046FFF722FE05460E464C
:1005800050465946424600F039F8084305D001204C
:1005900004E020463946BDE8F08D0020054346EAD8
:1005A000E0762C4337430A986305E40AA0EB080081
:1005B0000022FD0A44EA47540A3002D500200146D1
:1005C000E9E7010510196941DDE9084500196941AC
:1005D000BDE8F04DA2E70000064C074D06E0E068DC
:1005E00040F0010394E8070098471034AC42F6D37A
:1005F000FFF7CEFD0468000824680008202A04DB09
:10060000203A00FA02F1002070479140C2F1200325
:1006100020FA03F3194390407047000070B5044678
:100620000068816801F00301012926D10168C9072A
:1006300023D0816801F00D01012910D1816841F0BA
:100640000201816021680320086000F099FD0546E1
:100650000FE000BF00F094FD401B022809D9606C38
:1006600040F010006064A06C40F00100A064012024
:1006700070BD20688068C007ECD1002070BD00000C
:1006800070B504460068816801F00301012902D1B8
:100690000168C90720D18168104A11420DD18168D3
:1006A00041F00101816000F06BFD05460FE000BFE5
:1006B00000F066FD401B022809D9606C40F0100074
:1006C0006064A06C40F00100A064012070BD20684F
:1006D0000068C043C007EBD1002070BD3F00008020
:1006E000F0B595B00024009490F840202546012AEA
:1006F00019D0012780F8407003689A6852077CD4AB
:100700004A681F26052A11D2D3F830C002EB4202F4
:10071000520096402CEA060C0E6896404CEA060CF5
:10072000C3F830C035E0022015B0F0BD0A2A0FD260
:10073000D3F834C0521F02EB4202520096402CEA1A
:10074000060C0E6896404CEA060CC3F834C020E054
:100750000F2A0FD2D3F838C00A3A02EB42025200F5
:1007600096402CEA060C0E6896404CEA060CC3F83C
:1007700038C00EE0D3F83CC00F3A02EB4202520000
:1007800096402CEA060C0E6896404CEA060CC3F81C
:100790003CC00268936813F00C0F4FF0070374D14C
:1007A000D1F800E0BEF10A0F10D39669AEF10A0E3F
:1007B0000EEB4E0C03FA0CFE26EA0E06D1F808E00A
:1007C0000EFA0CFE46EA0E0696610FE0D2F814C04F
:1007D0000EEB4E0603FA06FE2CEA0E0CD1F808E0EA
:1007E0000EFA06FE4CEA0E0CC2F814C002684E69FE
:1007F000D2F80CC0CCF3C10C00E0FDE04FEA4C0C89
:1008000006FA0CF6D1F810E0DFF848C2BEF1010F8D
:1008100042D0BEF1020F4DD0BEF1030F58D0BEF151
:10082000040F63D0166E91F800C006F0F846B6EBE0
:100830008C6F03D1166E26F0004616660268566E5F
:1008400091F800C006F0F846B6EB8C6F03D1566EF7
:1008500026F0004656660268966E91F800C006F0D3
:10086000F846B6EB8C6F03D1966E26F0004696667E
:100870000268D66E91F800C006F0F846B6EB8C6FB1
:1008800003D1D66E26F00046D6660268966806F05A
:100890000306012E3AD136E0D2F860E00EEA0C0EE3
:1008A00091F800C046EA8C664EEA060E4EF000460D
:1008B0001666EAE7D2F864E00EEA0C0E91F800C082
:1008C00046EA8C664EEA060E4EF000465666DCE7B7
:1008D000D2F868E00EEA0C0E91F800C046EA8C6689
:1008E0004EEA060E4EF000469666CEE7D2F86CE071
:1008F0000EEA0C0E91F800C046EA8C664EEA060E2F
:100900004EF00046C0E71668F6077AD1CE68012E91
:1009100006D052F8B03F0E78B740BB43136021E0D9
:1009200052F8B06F91F800C007FA0CF73E4316601A
:100930000A680A2A0BD30668B769093A02EB420231
:1009400093409F438B6893401F43B7610AE0076859
:100950007E69521C02EB420293409E438B68934097
:100960001E437E6103684FF0A0473B4EBB4201D05F
:10097000B34201D1394A00E0394A0968102904D04C
:10098000112907D012290AD03BE0D2F808C04FEA5B
:100990000C2C08E0D2F808C04FEACC1C03E0D2F8D7
:1009A00008C04FEA4C2CBCF1000F2ADBBB420DD033
:1009B000B34201D100970CE02A4EDFF8ACC0B3423D
:1009C00002D1CDF800C004E0634501D1009600E0FB
:1009D00000959E6806F00306012E02D11E68F607F8
:1009E0000AD1009E8EB1B66806F00306012E0CD126
:1009F000009E3668F60708D0416C41F02001416442
:100A0000012480F8405020468EE6102908D0112994
:100A10001AD01229F5D1916841F480019160F0E774
:100A2000BB42EED1916841F4000191600F49104A38
:100A30000968B1FBF2F101EB8101490000E0491EB8
:100A400000910029FBD1DCE7BB42DAD1916841F08B
:100A50008071E3E700F0FF830001005000030050C5
:100A6000000700500004005000050050BC000020AA
:100A700040420F000068006C70470000F0B54FF076
:100A8000000695B0040037463546009605D0606CE8
:100A9000C00649D4606C18B134E0012015B0F0BD37
:100AA000A5642565E56484F84050204600F00AF905
:100AB00020688068C00025D42046FFF7AFFD0646B9
:100AC000606C00F0100131431CD1606C20F4885040
:100AD00040F0020060642068816821F0405181602C
:100AE0002068816841F0805181606D486D490068DF
:100AF000B0FBF1F000EB8000400000E0401E0090F1
:100B00000028FBD120688168C90002D58068800078
:100B10000AD5606C20F0020040F010006064A06C08
:100B200040F00100A0640126606C00F0100030432A
:100B300073D12068816849076FD4616C21F480719A
:100B400041F0020161644FF0A04E574B704501D057
:100B5000984201D1554A00E0554ADFF858C156493C
:100B6000704501D100930EE0984202D1CDF800E02B
:100B700009E0884202D1CDF800C004E0604501D10F
:100B8000009100E00095836803F00303012B02D17C
:100B90000068C00710D1009840B1806800F00300E1
:100BA000012803D100980068C00705D190686368E8
:100BB00020F4403018439060D4E902201043A26B27
:100BC000012A02D04FF4805300E00023E26943EA97
:100BD00042331843636A3843012B0AD1F2B1626C85
:100BE00022F0020242F020026264A26C42F0010292
:100BF000A264E26A012A21D023688B4201D06345B6
:100C000018D14FF430774FF4E071BA4213D04FF45B
:100C100080739A420AD139460DE038E0228D274B85
:100C200003EB4242024342F48030E2E78A4201D1C0
:100C3000194600E011460143206B084321688A6889
:100C400012F00C0F0AD1CA6844F202039A43CA6038
:100C5000A169626B890341EA420108432168CA68BD
:100C6000174B1A400243CA60206901282068016BB3
:100C700021F00F0102D1226A521E11430163A564C3
:100C8000606C20F0020040F00100606406E0606CDF
:100C900020F0020040F01000606401263046FDE6BE
:100CA000BC00002040420F00000100500003005033
:100CB0000007005000050050000400500000FEFF37
:100CC00007C0F0FF00B5006887B0B0F1A04F13D1A6
:100CD0000A48416941F0805141614069694600F02C
:100CE0008050059002200090032001900020029087
:100CF0004FF0904000F076F907B000BD00100240C0
:100D00002DE9F041044600688068400770D494F8EB
:100D1000400001280CD0012084F840002046FFF755
:100D2000AFFC03004FF0000605D084F8406086E079
:100D30000220BDE8F081606C40F60161884340F418
:100D40008070606420684FF0A0413E4A3E4D88426A
:100D500001D0904202D1D1F8087300E02F6817F05B
:100D60001F0F3A4F03D0884201D0B8420BD1D4F8BC
:100D700044C02CF4801CC4F844C0D0F80CC05FEA16
:100D80008C1C14D41BE0D4F844C04CF4801CC4F870
:100D900044C0904202D1D1F80CC005E0DFF8ACC0ED
:100DA0000CF10C0CDCF800C01CF0007F07D0D4F86C
:100DB00044C02CF4005C4CF4805CC4F844C0D4F80B
:100DC00044C05FEACC4C06D5D4F848C02CF0060CE1
:100DD000C4F848C000E0A66484F840601C260660A1
:100DE0002068884201D0904203D1D1F8084301E045
:100DF00024E02C6814F01F0F1BD0884201D09042D1
:100E000002D1D1F8084300E02C6804F01F04052C3F
:100E10000FD0884201D0904202D1D1F8082300E0DF
:100E20002A6802F01F02092A03D0884201D0B84282
:100E300005D1816841F00401816000E00223184679
:100E400077E7000000010050080700500004005040
:100E50002DE9F041040004D094F83900002518B1C0
:100E600007E00120BDE8F08184F83850204600F00A
:100E700095F8022084F839002068016821F0020109
:100E800001602068016841F00101016000F078F91B
:100E90000746032605E000BF00F072F9C01B0A28D0
:100EA00063D820684068C007F6D020684168C90749
:100EB00069D0A169012901683FD021F0800101605A
:100EC000E0690128206801683AD021F04001016002
:100ED000206A01282068016835D021F020010160D6
:100EE000606A01282068016830D021F0100101609B
:100EF000A06A0128206801682BD021F00801016058
:100F0000E06A01282068016826D021F00401016010
:100F1000D4E902010843D4E904121143084361688B
:100F2000491E08432168C8612068016821F0010159
:100F3000016000F025F907461DE041F08001BEE7A1
:100F400041F04001C3E741F02001C8E741F0100142
:100F5000CDE741F00801D2E741F00401D7E700BF37
:100F600000F00EF9C01B0A2805D984F8396084F80E
:100F70003850032076E720684068C007F0D1206829
:100F80004068C00703D0042084F8390069E7E563AE
:100F9000012084F83900002064E7000000B50068F3
:100FA0000E4987B0884217D10D48C16941F00071E0
:100FB000C161C069694600F0007005904FF4C050EF
:100FC000009002200190002002900320039009204D
:100FD0000490C00600F006F807B000BD00640040B1
:100FE000001002402DE9F84FDFF864B100234FF004
:100FF000010C4FF0030A4FF00F090BF1040EA0E0B3
:101000000CFA03F6324072D04C68022C01D0122C3C
:101010000ED1DC0800EB8408D8F820405D07EF0E05
:1010200009FA07F5AC430D69BD402543C8F82050C7
:1010300007685D0091F804800AFA05F408F00308D7
:10104000A74308FA05F848EA0708C0F800804F6887
:10105000012F05D0022F03D0112F01D0122F11D153
:101060008768D1F80C80A74308FA05F848EA070812
:10107000C0F808804768B7430E79C6F300169E4053
:101080003E434660C668A6438C68AC403443C460A7
:101090004C68E40054D52F4CA56945F00105A561C5
:1010A000A46923F0030504F0010400942A4C2E19CE
:1010B000B4689D072F0F09FA07F5AC43B0F1904FC4
:1010C00004D0264DA84203D1012512E0002510E0EE
:1010D000234DA84201D102250BE0224DA84201D1A7
:1010E000032506E0204DA84202D1042501E027E0B7
:1010F0000525BD402543B560DBF800405D464E68E0
:101100009443F60300D514432C60DEF80040754686
:101110004E689443B60300D514432C600C4D08353B
:101120002C684E689443F60200D514432C60084D99
:101130000C352C684E689443B60200D514432C60DD
:101140005B1C0A6832FA03F47FF45AAFBDE8F88FEB
:10115000000401400010024000000140000400486B
:1011600000080048000C00480010004800690840D2
:1011700000D0012070470AB18161704781627047D9
:1011800001480068704700000000002090F84120EE
:10119000202A24D190F84020012A20D0012280F872
:1011A0004020242280F841200268136823F00103C4
:1011B00013600268136823F4805313600268136895
:1011C0000B43136001680A6842F001020A602021A3
:1011D00080F84110002180F8401008467047022036
:1011E0007047000070B5040004D094F84100002559
:1011F00010B106E0012070BD84F84050204600F098
:1012000075F9242084F841002068016821F001016B
:1012100001606068216820F0706008612068816862
:1012200021F400418160A06830B1E168012907D054
:1012300040F4044021688860E068022803D006E09A
:1012400040F40040F6E721684FF4006048602068F1
:1012500041680F4A11434160D4E904010843A16980
:1012600040EA01202168C860D4E9070108432168E9
:1012700008602068016841F0010101606564202078
:1012800084F84100256384F84250002070BD0000BE
:10129000008000022DE9F84F044690F84100DDF887
:1012A00028A01F4690468B4620287DD194F8400008
:1012B000012879D0012084F84000FFF761FF06463D
:1012C000012200901923D103204601F0D5F948BB33
:1012D000222084F84100102084F842000025656433
:1012E000C4F8248067856563618DFF274FF4105033
:1012F0004FF080784FF00079FF2903D927853A46CF
:10130000009033E0618D2185009034E059462046FD
:1013100001F0A0F933E000BF01F0D8F918B1606C1A
:10132000042848D019E02068416A606A421C626261
:101330000170208D401E0004000C2085618DA1F1FC
:10134000010161851BD1608DC8B153460022802107
:101350002046009601F090F910B10320BDE8F88F07
:10136000608DFF2804D927853A4600954346CDE78E
:10137000608D2085009594F828204B46C6E7608D47
:101380003246002851462046C6D101F0DFF9002838
:10139000C5D121682020C86121684A68084B1A40DD
:1013A0004A6084F8410000E007E084F8425084F885
:1013B00040500020D2E70120D0E70220CEE7000015
:1013C00000E800FE2DE9F84F044690F84100DDF8F2
:1013D00028A01F4690468B4620287CD194F84000D8
:1013E00001287FD0012084F84000FFF7C9FE06469F
:1013F000012200901923D103204601F03DF938BBAA
:10140000212084F84100102084F842000025656402
:10141000C4F8248067856563618D4002FF274FF023
:1014200080784FF00079FF2903D927853A4600904C
:1014300031E0618D2185009032E05946204601F06F
:1014400009F931E001F0A9F918B1606C042847D01E
:1014500018E0606A411C6162216800788862608DD2
:10146000401E6085208D401E0004000C20851BD18D
:10147000608DC8B15346002280212046009601F0BD
:10148000FBF810B10320BDE8F88F608DFF2804D968
:1014900027853A4600954346CFE7608D2085009525
:1014A00094F828204B46C8E7608D32460028514604
:1014B0002046C7D101F04AF90028C6D12068202172
:1014C000C16120684368084A1340436084F84110B2
:1014D00084F8425000E005E084F840500020D2E754
:1014E0000120D0E70220CEE700E800FE70B50068DA
:1014F000164E1221012203230425154C86B0B0425A
:101500000ED1C0208DE82F0069461248FFF76AFD12
:10151000E06940F40010E061E06900F4001012E0BE
:101520000D4EB04210D14FF4C0608DE82F006946D7
:101530004FF09040FFF756FDE06940F48000E06115
:10154000E06900F48000059006B070BD00540040D2
:1015500000100240000400480058004002480168A2
:10156000491C01607047000000000020074810B5CA
:10157000016841F010010160032000F075F80020BF
:1015800000F006F800F018F8002010BD002002401E
:1015900010B5044607484FF47A710068B0FBF1F0CB
:1015A00000F096FF00222146501E00F03DF800207A
:1015B00010BD0000BC0000201A4808B5816941F048
:1015C00001018161806900F001000090032000F0BA
:1015D0004BF8002211466FF00B0000F025F80022B6
:1015E00011466FF00A0000F01FF8002211466FF05C
:1015F000090000F019F800221146501F00F014F8FD
:1016000000221146101F00F00FF800221146901E14
:1016100000F00AF80022BDE808401146501E00F014
:1016200003B8000000100240F0B40E4B1B680C46DB
:10163000C3F30223C3F10705042D00D90425191DA6
:10164000072901D2002300E0DB1E012606FA05F17E
:10165000491E214099409E40761E16403143F0BC01
:1016600001F05CB90CED00E0064900F007020868E3
:101670004FF6FF03184040EA0220034A1043086077
:10168000704700000CED00E00000FA052DE9F84F6E
:1016900004460068804DC0036FD5E8690026C0008D
:1016A00008D4E86940F08050E861E869012600F05C
:1016B0008050009079480168C90512D401688046BD
:1016C00041F480710160FFF75BFD074605E000BF54
:1016D000FFF756FDC01B642835D8D8F80000C005B8
:1016E000F6D5286A10F4407053D0A18801F44071F7
:1016F00081424ED0286A4FF4803191FAA1F2B2FAB9
:1017000082F29700664A4FF00108174420F44070B7
:10171000C7F8008491FAA1F1B1FA81F102EB8101DD
:101720000023C1F800342862C00732D0FFF728FD3B
:10173000074641F2883A4FF0020907E0FFF720FD23
:10174000C11B514502D90320BDE8F88F99FAA9F1D0
:10175000B1FA81F141F040014846B8EB511F01D187
:1017600029680CE090FAA0F1B1FA81F141F0400152
:10177000B0EB511F02D1296A01E015E0696A99FABC
:10178000A9F0B0FA80F000F01F0008FA00F2114250
:10179000D4D0286A616820F44070084328621EB1E2
:1017A000E86920F08050E8612078C00705D0286BF8
:1017B000A16820F00300084328632078800705D53E
:1017C000286BE16820F44030084328632078400704
:1017D00005D5286B216920F4402008432863207830
:1017E000800605D5286BE16920F0100008432863C6
:1017F0002068800305D56868A16B20F48000084349
:1018000068602078400605D5286B216A20F020000A
:10181000084328632078000705D5286B616920F408
:101820004010084328632078C00605D5286BA169BD
:1018300020F44000084328632088800505D56868A7
:10184000E16A20F40000084368602078000605D5AE
:10185000E86A616A20F4F8700843E8622088C005ED
:1018600005D5E86AA16A20F478500843E862208828
:10187000C00405D5286B216B20F4807008432863D1
:101880002088800405D5286B616B20F40070084324
:101890002863002058E7000000100240007000405C
:1018A000000042422DE9F047DFF8708105460E4600
:1018B000D8F8000000F00700B0420CD2D8F80010B1
:1018C00021F007013143C8F80010D8F8000000F0FB
:1018D0000700B04277D12878514C800705D5606861
:1018E000A96820F0F000084360602878C00759D04C
:1018F0006968012001290DD0022929D05FF0020377
:1019000093FAA3F2B2FA82F242F02002520904D012
:10191000226803E04FF40033F2E7626A93FAA3F31C
:10192000B3FA83F303F01F03984002424BD0606880
:1019300020F0030008436060FFF722FC6968074657
:1019400041F2883001290DD00229814617D025E0C7
:101950004FF00073D4E700BFFFF712FCC11B4945ED
:1019600001D918E081466068C0F381000128F3D1F5
:1019700018E000BFFFF704FCC11B49450BD86068A5
:10198000C0F381000228F5D10CE000BFFFF7F8FB9F
:10199000C11B494502D90320BDE8F087606810F0FB
:1019A0000C0FF3D1D8F80010404601F00701B14206
:1019B0000BD9016821F0070131430160006800F094
:1019C0000700B04201D00120E6E72878400705D59E
:1019D0006068E96820F4E0600843606028780007E8
:1019E00006D56068296920F4605040EAC100606053
:1019F00000F052F86168F02292FAA2F201F0F001D0
:101A0000B2FA82F2D140074A515CC84006490860E8
:101A10000020FFF7BDFD0020BEE7000000200240CF
:101A200000100240EC670008BC000020014800687C
:101A300070470000BC000020084809490068496858
:101A40004FF4E06292FAA2F201F4E061B2FA82F29B
:101A5000D140044A515CC84070470000BC000020DF
:101A600000100240FC6700080848094900684968FE
:101A70004FF4605292FAA2F201F46051B2FA82F28B
:101A8000D140044A515CC84070470000BC000020AF
:101A900000100240FC670008144B10B55A68144847
:101AA00002F00C0104291DD008291BD14FF4701439
:101AB00094FAA4F402F47011B4FA84F4E1400D4CE9
:101AC000DB6A615C0F2494FAA4F403F00F03B4FA08
:101AD00084F4E340074C1034D203E35C03D5B0FB3D
:101AE000F3F0484310BD0448484310BD00100240C5
:101AF00000127A008C4D000800093D002DE9F84FD6
:101B000005460078F74EC0074FF0010425D07068F5
:101B10006704C0F38100012807D07068C0F381001A
:101B200002281BD17068C00318D597FAA7F0B0FA45
:101B300080F040F02000400901D0306800E0706A79
:101B400097FAA7F1B1FA81F101F01F0104FA01F14E
:101B5000084264D0686800287DD060E06868B0F50D
:101B6000803F0BD010B1B0F5A02F17D0306820F413
:101B700080303060306820F4802002E0306840F42B
:101B800080303060F06AA96820F00F000843F062EE
:101B9000686828B3FFF7F4FA80460BE0306840F439
:101BA00080203060EAE700BFFFF7EAFAA0EB080008
:101BB000642871D897FAA7F0B0FA80F040F02000BE
:101BC000400901D0306800E0706A97FAA7F1B1FAD5
:101BD00081F101F01F0104FA01F10842E4D01EE096
:101BE000FFF7CEFA804605E0FFF7CAFAA0EB08003F
:101BF0006428DED897FAA7F0B0FA80F040F0200011
:101C0000400901D0306800E0706A97FAA7F1B1FA94
:101C100081F101F01F0104FA01F10842E4D12878B2
:101C2000DFF8C48280074FF0000A4FF0020732D578
:101C300070684FF0F80B10F00C0F07D07068C0F30D
:101C40008100022829D17068C00326D497FAA7F032
:101C5000B0FA80F000E08BE040F02000400901D0B5
:101C6000306800E0706A97FAA7F1B1FA81F101F0EB
:101C70001F0104FA01F1084202D02869012877D136
:101C800030689BFAABF26969B2FA82F220F0F80090
:101C90009140084330605AE064E1286988B394FABF
:101CA000A4F0B0FA80F048F82040FFF769FA8146C6
:101CB00006E000BFFFF764FAA0EB0900022898D8FD
:101CC00097FAA7F0B0FA80F040F02000400901D068
:101CD000306800E0706A97FAA7F1B1FA81F101F07B
:101CE0001F0104FA01F10842E4D030689BFAABF21C
:101CF00020F0F8016869B2FA82F290400143316045
:101D000025E0FFE794FAA4F1B1FA81F148F821A0A7
:101D1000FFF736FA814605E0FFF732FAA0EB09003B
:101D20000228CCD897FAA7F0B0FA80F040F0200053
:101D3000400901D0306800E0706A97FAA7F1B1FA63
:101D400081F101F01F0104FA01F10842E4D1287881
:101D500000076CD5A869A8B394FAA4F0B0FA80F093
:101D600008EB8000C0F88044FFF70AFA814607E0DC
:101D70008AE100BFFFF704FAA0EB090002289ED811
:101D800097FAA7F0B0FA80F040F06000B4EB501F73
:101D900001D130680BE097FAA7F0B0FA80F040F07C
:101DA0006000B7EB501F01D1306A00E0706A97FA0B
:101DB000A7F1B1FA81F101F01F0104FA01F210421A
:101DC000D8D034E0FFE794FAA4F1B1FA81F108EB3E
:101DD0008101C1F880A4FFF7D3F9814606E000BF76
:101DE000FFF7CEF9A0EB090002289AD897FAA7F0DE
:101DF000B0FA80F040F06000B4EB501F01D13068C1
:101E00000BE097FAA7F0B0FA80F040F06000B7EB73
:101E1000501F01D1306A00E0706A97FAA7F1B1FA59
:101E200081F101F01F0104FA01F21042D8D12878A3
:101E3000400774D5F0694FF00009C00009D4F0697B
:101E400040F08050F061F0694FF0010900F08050DF
:101E5000009026480168C90512D4016841F48071D8
:101E60000160FFF78DF9834606E000BFFFF788F9B0
:101E7000A0EB0B00642875D81C480068C005F5D598
:101E8000E86801280AD008B1052811D0306A20F08E
:101E900001003062306A20F0040002E0306A40F055
:101EA00001003062E868E0B1FFF76AF983460DE0AF
:101EB000306A40F004003062F0E700BFFFF760F9DD
:101EC000A0EB0B0141F2883081424BD897FAA7F082
:101ED000B0FA80F040F04000B4EB501F08D13068F9
:101EE00012E01DE00010024000004242007000407D
:101EF00097FAA7F0B0FA80F040F04000B7EB501F1F
:101F000001D1306A00E0706A97FAA7F1B1FA81F165
:101F100001F01F0104FA01F21042CFD02EE034E0AC
:101F2000FFF72EF9834607E0FFF72AF9A0EB0B0134
:101F300041F28830814215D897FAA7F0B0FA80F0C4
:101F400040F04000B4EB501F01D130680CE097FA2C
:101F5000A7F0B0FA80F040F04000B7EB501F02D17C
:101F6000306A01E083E0706A97FAA7F1B1FA81F173
:101F700001F01F0104FA01F21042D5D1B9F1000FAE
:101F800003D0F06920F08050F061E86980B3716897
:101F9000C1F38101022977D04FF080714F000228F0
:101FA00009D091FAA1F0B0FA80F048F820A0FFF72C
:101FB000E7F805465EE0894691FAA1F15046B1FA8C
:101FC00081F1C24648F82100FFF7DAF8804605E0C3
:101FD000FFF7D6F8A0EB0800022848D897FAA7F038
:101FE000B0FA80F040F02000400902D0306801E0F3
:101FF00056E0706A97FAA7F1B1FA81F101F01F017A
:1020000004FA01F10842E3D1D5E9081008437168E8
:1020100021F474110843706099FAA9F0B0FA80F0C5
:102020004AF82040FFF7ACF8054604E0FFF7A8F8AF
:10203000401B02281BD897FAA7F0B0FA80F040F0B6
:102040002000400901D0306800E0706A97FAA7F1DB
:10205000B1FA81F101F01F0104FA01F10842E5D063
:102060001EE000BFFFF78CF8401B022802D90320B6
:10207000BDE8F88F97FAA7F0B0FA80F040F02000A2
:10208000400902D0306801E00CE0706A97FAA7F1CD
:10209000B1FA81F101F01F0104FA01F10842E1D126
:1020A0000020E5E70120E3E72DE9F041040004D03A
:1020B00094F85D00002518B107E00120BDE8F0812B
:1020C00084F85C50204600F04FF8022384F85D301D
:1020D0002068016821F040010160E0684FF4E0668B
:1020E000B04201D9002101E04FF48051B0F5706F8A
:1020F00002D0B04200D0A562276B012227B9B042BE
:1021000001D9236300E02263D4E901031843D4E931
:10211000043633431843238B03F400731843E369F5
:102120001843236A1843A36A184323681860206B76
:10213000022804D12068036843F400630360636BE2
:10214000606AA66918430427E36807EA1646334322
:1021500018430843216848602168E06A08612566E1
:1021600084F85D200020A9E7F0B5224B0268002426
:10217000214802210325052687B09A4224D182698D
:1021800042F48052826180694FF0904700F48050A1
:102190000590A0208DE8730069463846FEF722FFBF
:1021A0004020009001AA122082E87100694638465A
:1021B000FEF718FF1020009001AA012082E83100EC
:1021C00069463846049410E00C4B9A420FD1C2691C
:1021D00042F48042C261C06900F4804005904FF42F
:1021E00070408DE8730069460548FEF7FBFE07B0B6
:1021F000F0BD0000003001400010024000380040F7
:10220000000400482DE9F84F1F4691468A460446CF
:102210000A9EFEF7B5FF804694F85C000025012871
:1022200009D04FF0010B84F85CB094F85D000128F0
:1022300004D0022538E10220BDE8F88FBAF1000F82
:102240007DD0B9F1000FFBD0002FF9D0052084F824
:102250005D0000202066C4F84090A4F84670A4F801
:102260004470C4F838A0E787A787A06A4FF40057E6
:10227000B8420AD1206801684DF6FF721140016032
:102280002068016841F400510160E0684FF4E061AA
:10229000884203D8B4F84600012804D9206842686F
:1022A00022F4805203E02068426842F48052426087
:1022B00020680268520603D4026842F040020260BD
:1022C000E068884240D8A5E010B32068816889079B
:1022D0001ED5A16B0988C160A06B801CA063E08F34
:1022E000401E0004000CE08712D1A06AB8420FD152
:1022F00020680168490706D44168090703D50168C9
:1023000041F4007101602068016841F4805101606E
:10231000B4F8460070B120688168C9070AD0C06867
:10232000216C0880206C801C2064B4F84600401E9C
:10233000A4F84600701C07D0FEF722FF00E0B2E0D0
:10234000A0EB0800B04263D2E08F0028BCD1B4F803
:1023500046100029B8D164E058B321688A68920712
:1023600027D50128A06B07D90088C860A06B801C06
:10237000A063E08F801E05E0421CA2630078087312
:10238000E08F401EE0870004000C12D1A06AB84222
:102390000FD120680168490706D44168090703D5B1
:1023A000016841F4007101602068016841F48051C6
:1023B0000160B4F8461019B320688268D2071FD0B4
:1023C000012913D9C068216C0880206C801C20640E
:1023D000B4F84600801E80B2A4F8460001280FD849
:1023E0002068416841F48051416009E0027B206C23
:1023F000411C21640270B4F84600401EA4F8460057
:10240000701C07D0FEF7BCFEA0EB0800B04201D361
:10241000032549E0E08F00289ED1B4F8461000293A
:102420009AD1A06AB84228D10122334611462046EB
:1024300000F0EEFAB0B9E068B0F5706F206808D02F
:10244000007BADF80000BDF80000206B022802D030
:1024500013E0C0680DE0012233461146204600F02B
:10246000D7FA20B1206E40F002002066D0E7206845
:10247000007BADF80000BDF8000020688168C9430A
:10248000C90607D4216E41F0020121664FF6EF71B3
:10249000816001253146204600F051FA08B1202024
:1024A0002066206E00B1012584F85DB0002084F81C
:1024B0005C002846C0E64FF0E0210428086903D0FC
:1024C00020F004000861704740F00400FAE770470C
:1024D00010B5401EB0F1807F01D3012010BD4FF038
:1024E000E02460610F21601700F018FA0020A0615D
:1024F00007202061002010BD10B5FFF7E8FF10BDD8
:1025000010B5040003D094F8690010B107E0012071
:1025100010BD002084F86800204600F027F8242031
:1025200084F869002068016821F0010101602046FB
:1025300000F0FEFB0128EBD0606A10B1204600F0ED
:1025400069FB2068416821F49041416020688168FE
:1025500021F02A0181602068016841F001010160D9
:102560002046BDE8104000F0B9BB000000B500688F
:102570000E4987B0884217D10D48C16941F4003136
:10258000C161C069694600F4003005900C200090DC
:102590000220019001200290032003900720049064
:1025A0004FF09040FEF71EFD07B000BD0044004014
:1025B0000010024001688A69D243920701D40022C8
:1025C0008A6200688169C943C90703D0816941F003
:1025D00001018161704700002DE9F0410446006867
:1025E00090460E468069C043C0062ED400252027A1
:1025F00020688069C043800611D5701CF8D02EB1C8
:10260000FEF7BEFDA0EB0800B042F1D984F841709E
:1026100084F8425084F840500320BDE8F0812168DE
:102620001020C8612068C7612046FFF7C3FF54F837
:10263000440B4168064A11404160042044F82009D7
:102640006777A57725770120E7E70020E5E7000019
:1026500000E800FE70B50568049E6C6805480440FB
:10266000C1F3090040EA0240184330432043686048
:1026700070BD0000009800FC2DE9F0411D46174692
:102680000E460446DDF8188013E0681C11D02DB109
:10269000FEF776FDA0EB0800A8420AD9202084F8B6
:1026A0004100002084F8420084F840000320BDE887
:1026B000F0812068806936EA000004D00020B8422A
:1026C000E3D00020F3E70120F9E700002DE9F04115
:1026D000002690460F46044620252DE04246394606
:1026E0002046FFF779FF10B10120BDE8F081206896
:1026F0008069C04380060ED42068C56120684168A7
:10270000114A11404160666484F8415084F8426087
:1027100084F84060E8E72FB1FEF732FDA0EB080037
:10272000B84209D954F8440F40F0200044F8040995
:10273000657026700320D8E720688069C043400791
:10274000CCD40020D1E7000000E800FE70B51646AA
:102750000D4604461AE0324629462046FFF73CFF64
:1027600008B1012070BD25B1FEF70AFD801BA8420B
:102770000CD954F8440F40F0200044F804092020FC
:1027800060700020A0702070032070BD20688069F8
:10279000C0438006DFD4002070BD70B516460D46DC
:1027A00004461CE0324629462046FFF715FF08B1D3
:1027B000012070BD681C12D025B1FEF7E1FC801B22
:1027C000A8420CD954F8440F40F0200044F8040902
:1027D000202060700020A0702070032070BD206851
:1027E0008069C0438007DDD4002070BD0C4810B55F
:1027F0000A4901603021416000218160C1600161AE
:1028000041618161C161016241628162C162FEF721
:102810001FFB002800D0FEE710BD00000064004050
:10282000440B00202DE9F041284886B0416941F46D
:1028300080014161416901F480010591416941F4E0
:1028400000314161416901F400310591416941F470
:10285000802141614069DFF8788000F4802040F6F3
:102860002F540590002221464046FEF784FC4FF489
:1028700000464FF09047002231463846FEF77BFC79
:102880000125CDE9004500240294694640460394A1
:10289000FEF7A8FB2802CDE90004694638460294F9
:1028A000FEF7A0FB0096CDE9015469463846039433
:1028B000FEF798FB1020CDE90004694640460294DB
:1028C000FEF790FB06B0BDE8F0810000001002406A
:1028D00000040048104810B50E4901604FF48271A1
:1028E000416000214FF44072C0E902124FF480228F
:1028F0000161C0E90512C161016207224162C0E9BC
:102900000A12016308214163FFF7CEFB002800D0C3
:10291000FEE710BD00380040840B00200907090EB7
:10292000002806DA00F00F0000F1E02080F8141D06
:10293000704700F1E02080F800147047704770B5D0
:102940000D460B46044600224FF4C05100F00FF82C
:1029500038B92B4600228021204600F059F8002883
:1029600004D0206E40F020002066032070BD2DE9C9
:10297000F8431D4617460E460446FEF701FC804606
:102980004FF4C0693DE04E4505D127B9007B8DF875
:1029900000009DF80000681C33D02DB1FEF7F0FB5D
:1029A000A0EB0800A8422CD32068416821F0E00188
:1029B00041606068B0F5827F0BD1A068B0F5004F30
:1029C00002D0B0F5806F04D12068016821F0400189
:1029D0000160A06AB0F5005F0AD1206801684DF679
:1029E000FF72114001602068016841F400510160EC
:1029F000012084F85D00002084F85C000320BDE81D
:102A0000F883206881683140B942BCD10020F6E7E4
:102A10002DE9F0411D4616460F460446FEF7B0FB71
:102A2000804635E0681C33D02DB1FEF7A9FBA0EB42
:102A30000800A8422CD32068416821F0E0014160E1
:102A40006068B0F5827F0BD1A068B0F5004F02D06E
:102A5000B0F5806F04D12068016821F04001016069
:102A6000A06AB0F5005F0AD1206801684DF6FF72D8
:102A7000114001602068016841F4005101600120AB
:102A800084F85D00002084F85C000320BDE8F0813C
:102A9000206880683840B042C4D10020F6E7704713
:102AA00010B5FEF75BFDBDE81040FFF725BD70B522
:102AB0009EB0032000904FF480300024CDE9010443
:102AC0000226CDE907604FF4E0100990012110259E
:102AD000CDE904156846FFF711F800B1FEE70F20B5
:102AE000CDE919064FF48060CDE91B40022119A8F9
:102AF0001D94FEF7D7FE00B1FEE7E2200A904FF4E6
:102B0000807013900D942020CDE911500AA8FEF793
:102B1000BDFD00B1FEE7FEF789FF4FF47A71B0FB0F
:102B2000F1F0FFF7D5FC0420FFF7C5FC00221146A9
:102B3000501EFEF779FD1EB070BD000030B516497D
:102B40004868164A10F00C03154803D0042B01D036
:102B5000082B01D0026015E04B684C6803F4701339
:102B60004FF0020514F4803F05EB934307D0CC6A85
:102B700004F00F04641CB2FBF4F25A43EAE7094A7A
:102B8000534303604968084AC1F30311515C02686A
:102B9000CA40026030BD00000010024000127A00FE
:102BA000BC00002000093D00EC67000814480168E3
:102BB00041F4700101601348016841F001010160B6
:102BC0004168114A114041600168104A114001609A
:102BD000016821F480210160416821F4FE01416017
:102BE000C16A21F00F01C162016B094A1140016302
:102BF000002181600249C0038039086070470000ED
:102C000088ED00E0001002400CC07FF8FFFFF6FEE8
:102C1000CCFC00FF90F82410C90706D001684A6870
:102C2000836A22F400321A434A6090F8241089071C
:102C300006D501684A68C36A22F480321A434A60A2
:102C400090F82410490706D501684A68036B22F4FE
:102C500080221A434A6090F82410090706D50168BB
:102C60004A68436B22F400421A434A6090F82410E9
:102C7000C90606D501688A68836B22F480521A431C
:102C80008A6090F82410890606D501688A68C36BAB
:102C900022F400521A438A6090F82410490611D594
:102CA00001684A68036C22F480121A434A60016C7E
:102CB000B1F5801F06D101684A68436C22F4C00256
:102CC0001A434A6090F82410090606D501684A683C
:102CD000806C22F4002202434A60704770B50025E0
:102CE0000446C566006800684FF47A76000707D589
:102CF000334600224FF40011204600F003F958B982
:102D000020680068400709D5334600224FF480014F
:102D1000204600F0F7F808B1032070BD202084F8A9
:102D2000690084F86A0084F86850002070BD0000D3
:102D30002DE9F041044610202369A268E6691A4390
:102D40006369002133431A4323680D461E6849F224
:102D50000C67BE4316431E6022685368E66823F47E
:102D6000405333435360236AA2691A4323689E6821
:102D700026F4306616439E605A4F22685A4B06036B
:102D8000BA420CD11B6B13F0030306D0012B4DD0BC
:102D9000022B4DD0032B4CD146E0012049E0534F8C
:102DA000BA420CD11B6B13F440333BD0B3423DD03D
:102DB000B3F5003F3CD0B3F5403F3AD134E04C4F3F
:102DC000BA420DD11B6B13F440232BD0B3F5802FE7
:102DD0002CD0B3F5002F2BD0B3F5402F29D123E011
:102DE000444FBA420DD11B6B13F440131AD0B3F504
:102DF000801F1BD0B3F5001F1AD0B3F5401F18D1A8
:102E000012E03D4FBA4214D11B6B13F4400309D0BA
:102E1000B3F5800F0AD0B3F5000F09D0B3F5400F1A
:102E200007D101E0002004E0022002E0042000E0DD
:102E30000820E7694FF400439F4226D109281DD29C
:102E4000DFE800F00508121C151C1C1C1800FEF71A
:102E5000F3FD01E0FEF708FE4100606801EB500160
:102E6000B1FBF0F081B20AE024496068F6E7FEF7B2
:102E700013FEF1E7606806EB5001F1E7012521F050
:102E80000F00C1F3420108431CE0092825D2DFE806
:102E900000F005080B24102424241C00FEF7CCFDB0
:102EA00009E0FEF7E1FD06E01549606801EB50011D
:102EB0000EE0FEF7F1FD0146606801EB5001B1FB49
:102EC000F0F080B22168C86008E0606803EB500150
:102ED000B1FBF0F080B2D06000E001252846BDE8EB
:102EE000F081000000380140001002400044004022
:102EF00000480040004C0040005000400024F40016
:102F000000127A002DE9F0471D4690460E46044611
:102F1000FEF736F907465FEA08004FF000094FF068
:102F2000200808D032E0681C05D095B1FEF728F9DA
:102F3000C01BA8420DD82068C06936EA0000F2D153
:102F400029E0681C22D025B1FEF71AF9C01BA8425F
:102F50001CD92068016821F08001016020680168A7
:102F600021F0200101602068016821F48071016076
:102F70002068816821F00101816084F8698084F80B
:102F80006A8084F868900320BDE8F0872068C069F3
:102F900036EA0000D5D00020F6E702E008C8121F8C
:102FA00008C1002AFAD170477047002001E001C132
:102FB000121F002AFBD1704770B505461148FDF776
:102FC0009FFE114C0020606020700E48FDF752FDFE
:102FD0006168084460602078401CC0B220702828D6
:102FE000F3D360682821B0FBF1F080B200EE100A44
:102FF000DFED060A0020B8EE400A20EE200A85ED3B
:10300000000A70BDCC0000200400002014AE653C16
:10301000F0B500242F4E304D8FB003276A6904EBC2
:10302000440106EBC10043681A436A61C268029218
:10303000826801920269CDE903274069059056F83C
:10304000310001A9FDF7CEFF641C14F0FF04E5D0A8
:10305000686940F08050686168694FF0A04100F0F5
:10306000805000901D4800240126C0E900148460AF
:10307000046144620463C661C46044634461846162
:1030800006628463FDF7FAFC00B1FEE70220CDE999
:1030900008060620CDE90A040C9408A90F480D94EF
:1030A000FDF71EFB00B1FEE7686940F4802068610F
:1030B000CDE90264CDE904740420094C019001A912
:1030C0002046FDF78FFF012204212046FEF753F82A
:1030D0000FB0F0BDAC4D000800100240CC00002045
:1030E00000040048F0B50025204C214E89B003278C
:1030F000626905EB450106EBC10043681A43626152
:10310000C2680392826802920269CDE9042740698D
:10311000069056F8310002A9FDF764FF6D1CEDB270
:10312000022DE5D3E06940F40010E061E069114947
:1031300000F4001000901048012201600F49416026
:103140000021C0E90212016141618161C161016236
:10315000FEF748F800B1FEE700210748FEF716F831
:10316000002800D0FEE709B0F0BD000000100240CA
:10317000C44D00080054004020010020FF5C700096
:1031800008B541EA400081B2642000900248FEF791
:1031900019F9002008BD000020010020F0B500252D
:1031A000204C214E89B00327626905EB450106EBEF
:1031B000C10043681A436261C26803928268029246
:1031C0000269CDE904274069069056F8310002A94A
:1031D000FDF708FF6D1CEDB2032DE5D3E06940F467
:1031E0008000E061E069114900F48000009010481F
:1031F000012201600F4941600021C0E90212016112
:1032000041618161C1610162FDF7ECFF00B1FEE740
:1032100000210748FDF7BAFF002800D0FEE709B0FB
:10322000F0BD000000100240F44D000800580040BE
:103230006C010020FF5C700008B5012303EB400027
:1032400064230093134680B20A4601460248FEF703
:1032500021F8002008BD00006C01002008B541EAFB
:10326000400081B2642000900248FEF7ABF80020D5
:1032700008BD00006C010020F0B500240E4D0F4E7B
:1032800085B003276A6904EB840106EB810043687B
:103290001A436A61C2680192826800920069CDE9AE
:1032A000020756F821006946FDF79CFE641CE4B253
:1032B000032CE7D305B0F0BD001002403C4E0008DF
:1032C00000EB8002064810B500EB820150F82200A6
:1032D000098989B2FDF74AFF002800D0012010BDFE
:1032E0003C4E000800EB800304480A4600EB8301D3
:1032F00050F82300098989B2FDF73DBF3C4E000814
:10330000144810B5124901604FF4827141600021E8
:103310004FF4E062C0E9021202220261012242611E
:10332000920482613822C0E9072107224162C0E984
:103330000A1201634163FEF7B7FE00B1FEE7012206
:10334000BDE8104010214FF09040FDF714BF000081
:1033500000300140B8010020F8B507460C46084689
:1033600000F0F8FE06464FF0904500221021284656
:10337000FDF701FF642000902346324639460B4892
:10338000FEF740FF0446094890F85D100229FBD083
:10339000012210212846FDF7EEFE304600F082FCA7
:1033A0000CB10020F8BD0120F8BD0000B8010020DC
:1033B0002DE9F84F1F468046CC1991460D46204610
:1033C00000F0C8FE8246204600F0C4FE06462146B4
:1033D000FF225046FCF716FF2A4641465046FCF7AE
:1033E000FFFE4FF09048002210214046FDF7C3FE3B
:1033F000642000902346324651460F48FEF702FFF4
:1034000004460D4890F85D100229FBD001221021DE
:103410004046FDF7B0FE71193A464846FCF7E0FE1B
:10342000504600F03FFC304600F03CFC14B1002058
:10343000BDE8F88F0120FBE7B801002000EB400356
:1034400004480A4600EB830150F82300098989B239
:10345000FDF791BE784E00082DE9F0430024114E8F
:10346000114D85B027464FF001084FF003097269EE
:1034700004EB440005EB80014B681A437261CDF800
:1034800004808968CDE90279009155F820006946E9
:10349000FDF7A8FD641CE4B2032CE8D305B0BDE839
:1034A000F083000000100240784E000870B5094D0E
:1034B000002400BF04EB840005EB800155F82000D8
:1034C0000989002289B2FDF756FE641CE4B2042C7F
:1034D000F0D370BD9C4E0008F0B500240E4D0F4E89
:1034E00085B003276A6904EB840106EB8100436819
:1034F0001A436A61C2680192826800920069CDE94C
:10350000020756F821006946FDF76CFD641CE4B221
:10351000042CE7D305B0F0BD001002409C4E00081B
:1035200000EB800304480A4600EB830150F82300B7
:10353000098989B2FDF71FBE9C4E00080C4810B5E2
:103540000A4901604FF4E1314160002181600C22A1
:10355000C160C0E904128161C16101624162FEF78C
:10356000CFFF002800D0FEE710BD0000004400405F
:103570001C0200201CB5044610A001230068019025
:1035800001AA00214020FFF769FE0222694640207F
:10359000FFF752FE9DF800009DF80110400240EA3E
:1035A000410001B200EE101ADFED050A0020B8EE6E
:1035B000C00A20EE200A84ED000A1CBD01000000B4
:1035C000C0EC9EBB1CB5044610A00123006801900E
:1035D00001AA00214020FFF741FE02226946402057
:1035E000FFF72AFE9DF800009DF80110800140EAD7
:1035F000910100EE101ADFED060A0020B8EE400A35
:1036000020EE200A84ED000A1CBD0000020000002C
:103610006F12833B08B5FFF7C1FD05A003230068C7
:1036200000906A4600214020FFF718FE08BD000008
:103630000077FF0070B504464120002207250FE007
:103640008B5C58400823060602D585EA400000E05E
:1036500040005B1EC0B213F0FF03F4D1521CD2B283
:10366000A242EDD370BD000038B5044CE080206963
:10367000009094E80F0000F037F938BD8C0200206C
:103680000FB40A4908B514220798087002A908481F
:10369000FCF7A6FDFFF734FE0548016900910FC84D
:1036A00000F022F901B05DF814FB00000C000020CE
:1036B0008C0200202DE9F04180462DED028B88B070
:1036C00000240127132000F045FD054680208DF8D9
:1036D000000069460120FFF7ADFF8DF801000420CE
:1036E0008DF8020001200DF10201FFF7A3FF8DF814
:1036F000030013232A460421684600F088F9AE7CB3
:1037000029461220FFF796FF864200D000270020AE
:1037100001AE2A5D641C295D641C0B0702EB135289
:10372000A2F5007226F810202A5D641C120102EB3B
:10373000111106EB4002A1F50071801C51800C288C
:10374000E7DB00249FED0E8B36F81400FCF75AFEE1
:1037500053EC182BFCF775FDFCF78DFE014608EBCA
:10376000C40001600471641CE4B20C2CECD3284644
:1037700000F098FA08B03846BDEC028BBDE8F08145
:10378000FA7E6ABC7493583F2DE9F84F06468A4684
:1037900004274FF00109800000F0DCFC05460024FE
:1037A00037E000BF04F180008DF800006946012079
:1037B000FFF740FF8DF801000C208DF8020001207A
:1037C0000DF10201FFF736FF8DF8030017FB06F03D
:1037D000C3B22A460421684600F019F900200AEB1A
:1037E00084012A5C0A54401CC0B2B842F9D3DFF805
:1037F0003480CA78062088F80420FFF71BFF88F879
:10380000030098F80410814201D04FF00009641CB5
:10381000E4B2B442C6D3284600F044FA4846BDE8B4
:10382000F88F00000C0000202DE9F84F054600201D
:10383000288008800C4669460120FFF7A5FF8446D2
:103840000098DFF864A020F07F41002001EA0A061A
:103850000122164F0FE000BF4FEA4009B5F8008083
:1038600002FA09F3334001D002FA00F348EA0308F0
:10387000A5F80080401C3B7A8342EDDC0AEA510146
:1038800000200AE04300258802FA03F30B4001D030
:1038900002FA00F31D432580401C3B7A8342F1DC91
:1038A0006046BDE8F88F0000555555008C02002099
:1038B0001D20AFF3008001B582B002A99DF8080079
:1038C0008DF800000120FFF7B5FE8DF80100022100
:1038D000684600F007F80EBD0148407AFFF7EBBFDD
:1038E0008C020020FFF738BD30B5284C00212DEDAB
:1038F000028B83B040F6FF700123227A05E000BFFF
:1039000003FA01F5A843491CC9B28A42F8D82178C4
:103910006278C90141EA8211A27841EA4211E27853
:1039200041EA0211227902F0070211438DF80010DA
:10393000E18802018DF8011042EA11218DF8021090
:1039400000098DF80300E068FCF782FD9FED108B05
:1039500053EC182BFCF7E7FCFCF761FD1F308DF8EA
:1039600004002069FCF774FD53EC182BFCF7DBFC1A
:10397000FCF755FD20308DF80500074869460078B2
:1039800000F00CF803B0BDEC028B30BD8C020020BF
:10399000FA7E6ABC7493983F0C0000202DE9F04732
:1039A00080460B208A460627814600F0D3FB04465A
:1039B000002525E005F18000207021460120FFF759
:1039C00039FE60700120A070A11CFFF733FEE0708B
:1039D000042605EB450100200AEB41010A5CA255D3
:1039E000761C401CC0B2F6B2B842F7D33846FFF797
:1039F00021FEA05549462046FFF774FF6D1CEDB22D
:103A00004545D7D32046BDE8F04700F04BB9FFF756
:103A1000CFBC000010B54FF4806421460448FCF789
:103A2000F8FB2146BDE81040FF220248FCF7EABB44
:103A3000C2060020C202002008B5002100918DF8C6
:103A40000100044802236A4690F9000080B2FFF7A3
:103A500097FB08BD120000202DE9F0411F4E204CBD
:103A600040203070A08888B92120FFF7E5FF0020B2
:103A7000FFF7E2FF7F20FFF7DFFF2220FFF7DCFFE9
:103A80000020FFF7D9FF0720FFF7D6FF15494FF4B5
:103A90008062A1F58060FCF7C7FB00281BD01148AD
:103AA000A7881022C5192946701CFCF799FB0B4802
:103AB0002946113038441022FCF792FB94F900009B
:103AC000112380B2054A0021FFF75AFBA08810306D
:103AD000C0F30900A080BDE8F0810000B102002021
:103AE00012000020C20600202DE9F04190460C464D
:103AF000054600F069FA87B200F036FA86B2002D6A
:103B00003ADB00F061FAA84236DD002C34DB00F02D
:103B10002BFAA04230DD00F021FA012804D002285F
:103B200008D0032810D10AE02046381A2C46401E3F
:103B300005B209E0781B401E05B2301B02E02846A2
:103B40002546301A401E04B21A495FEA08024FF0B7
:103B5000010020D0012A11D0B8F1020F0CD1E217D8
:103B600004EB5272D21005EBC2120A4404F00703B0
:103B70001178984041401170BDE8F081E21704EBE4
:103B80005272D21005EBC2120A4404F007031178F6
:103B900098400143EFE7E21704EB5272D21005EBB5
:103BA000C212114404F007030A78984082430A7055
:103BB000E2E70000C20600200A4601460148FCF781
:103BC0000FBB0000C206002070B50D460446FFF78B
:103BD00089FA314844700570AE20FFF72DFFD520DB
:103BE000FFF72AFF8020FFF727FFA820FFF724FF19
:103BF0003F20FFF721FFD320FFF71EFF0020FFF734
:103C00001BFF4020FFF718FF8D20FFF715FF012C49
:103C100038D01420FFF710FF2020FFF70DFF002001
:103C2000FFF70AFFA120FFF707FFC820FFF704FFF7
:103C3000DA20FFF701FF1220FFF7FEFE8120FFF7D9
:103C4000FBFE012C20D0CF20FFF7F6FED920FFF796
:103C5000F3FEF120FFF7F0FEDB20FFF7EDFE402042
:103C6000FFF7EAFEA420FFF7E7FEA620FFF7E4FE39
:103C70002E20FFF7E1FEAF20FFF7DEFEBDE870402B
:103C8000FFF7C8BE1020C5E79F20FFF7D5FED9205B
:103C9000FFF7D2FE2220DDE712000020FFF74EBC26
:103CA0007047000010B5002821D0114B0022001FE2
:103CB000196803E0814203D80A4649680029F9D10E
:103CC00052B11368841A9C4204D1006818441060F1
:103CD000104602E0506000E0186039B102680B1A2B
:103CE000934203D10B681A4402604968416010BDD9
:103CF000C40000202DE9FF4F81468FB05D48884603
:103D0000DDE91CB44169D9B1087A0027101A4A6864
:103D1000C0B202EBC000096805910188039190F8D8
:103D200002B0C178089190F905100E9190F9060043
:103D30000D90012C02D90D9804910790002085E088
:103D4000B0F9083099454ADAB0F90A30984546DAB0
:103D500004EB440309EB4301012940D408EBC401FF
:103D600001293CD4C07818B9B02A01D3521CD2B270
:103D7000414902EB8200002500EB010A01E0052D1C
:103D800002DA1AF8057000E000270026F8070CD0C8
:103D9000012C02D0129800900EE008EB060001B250
:103DA00009EB050000B2129A23E012998B450DD061
:103DB000012C17D0CDF800B006FB048001B205FB42
:103DC0000490234600B21A4600F0B3F8761C76B28F
:103DD0007F08082EDADB6D1C6DB2062DCFDB13B029
:103DE000BDE8F08F08EB060001B209EB050000B258
:103DF0005A4600F09CF8E9E7002522E0780707F131
:103E00000107FFB205D1059903980E5C401C80B2F2
:103E10000390300611D5012C1DD0079912980090FF
:103E2000514401FB048001B204982346421902FB6D
:103E3000049000B21A4600F07CF87006060E6D1C65
:103E4000EDB25D45DAD30AF10100C0B208998246AD
:103E50008842D1D3C3E70D990E9A414401EB0A0081
:103E600001B209EB0200284400B2129A00F05FF898
:103E7000E3E70000A4000020EC4E000808B50A4467
:103E8000521E009313B2024600F001F808BD2DE95E
:103E9000F05F0C4606461546191BA2EB060000D53E
:103EA0004942002800DA4042814207DD304626467A
:103EB0001D464FF001080446134601E04FF000088C
:103EC000AE4205DD30462E46054620461C460346DA
:103ED000A81B0FFA80F9181B00D540420FFA80FB8F
:103EE00009EBD97047109C4201DA012001E04FF044
:103EF000FF30824617E00A9AB8F1000F02D031462F
:103F0000204601E02146304600F011F8A7EB0B00F7
:103F100007B2002F05DA04EB0A0004B207EB090030
:103F200007B2761C36B2AE42E5DDBDE8F09FFFF782
:103F3000DBBD2DE9F0411D46884604468718069EE4
:103F400007E033462A4641462046FFF797FF641CA8
:103F500024B2A742F5DCBDE8F081000001484078BA
:103F600070470000A40000200148B0F90A00704723
:103F7000A4000020094A4FF6FF7390801081D18081
:103F80005181002050709081D081012111705382A5
:103F900013829170D070506170470000A40000201F
:103FA000014A9081D1817047A400002001494882D4
:103FB00008827047A400002000B901200149087060
:103FC00070470000A40000200148B0F908007047C5
:103FD000A40000202DE9FC5F444C4FF0000B22466A
:103FE00063699678B2F90850B2F81290B2F810A04E
:103FF000B2F90E701178B2F90C20E3B30A286DD033
:104000000D283ED093F808C060453AD393F8098054
:10401000804536D3A0EB0C04D3F804C0E4B20CEB1B
:10402000C40494F802C094F80380BCF1000F1ED0C1
:10403000B8F1000F1BD094F90580DFF8B0E066B14D
:10404000C444764611FB0C22AA4206DBA6F80CB04B
:104050009A7A11FB0272AEF80E20CDE90091024669
:104060005346BEF90E10BEF90C00FFF743FE1F4881
:104070002179027800E007E0B0F90C3011FB023141
:1040800081810120BDE8FC9F184B0A281F78DB893D
:1040900003EBC7031BB21DD00D28F2D046B101EBD4
:1040A000410602EB4602AA4202DBA4F80CB0E3810F
:1040B000CDE9009102465346B4F90E10B4F90C0054
:1040C000FFF718FE2078A18900EB400001EB4000CB
:1040D000A081D6E7E381A4F80CB0D2E7A4F80CB035
:1040E000987A11FB0070E081CBE70000A40000206B
:1040F000FDF73CFAFEF7DBFCFEF794FBFEF776FBE0
:10410000FEF7E8FBFFF7CAFD00F05AF80F4C2060FD
:1041100000F0BEF90221002000F0A6F9012000F015
:10412000E9FD0B48216800F0BFFB0948216800F059
:1041300055FA00BF00F0B4F900F0FCFD00F066FA9B
:1041400000F07AFDFFF7ACFDF4E70000C0000020AE
:10415000E80B0020F0B50B30154D20F007010024CE
:10416000144A0FE003688B420BD38B4205D95E1AC9
:1041700043184768C3E9006700E04368136002C062
:1041800004E0021D10680028ECD12046002802D16E
:10419000286808B10020F0BD064A07481060074AA9
:1041A000121A22F00702C0E9002401202860D7E794
:1041B000C8000020C40000206C0C0020680E002005
:1041C00000B500F005F8014800BD0000C40A002059
:1041D00022480C219FED220A017080ED010AB1EE08
:1041E000010A80ED020AB0EE080A80ED030A9FED95
:1041F0001D0A4FF47A6180ED040A9FED1B0A1E4AE6
:1042000080ED050A9FED190A80ED060AC1610521BE
:1042100080F8201042F210719FED150A416280ED86
:104220000A0A49109FED130AC16280ED0C0A9FED46
:10423000130A426380ED0E0A9FED110A4FF4967245
:1042400080ED0F0A9FED0F0A026480ED110A816470
:104250004FF47A71C164002070470000C40A002046
:1042600033333340333383400AD7A33B9A996940B1
:104270000AD7A33C0AD7233C40771B00CDCC4C3E49
:10428000CDCC4C3F00008C4210B5FEF757FC4FF0F0
:10429000E02005494161054AF02182F8141D002102
:1042A00081610721016110BD3F1901000FE000E0AD
:1042B00070B50D4604466321094800F013F8084A1A
:1042C000121F10B11068401C106021681068411A5C
:1042D000A94202D32060012070BD002070BD000003
:1042E0001C00002070B50D460446FCF749FF21680C
:1042F000401AA84204D3FCF743FF2060012070BDA0
:10430000002070BD10B5FCF73BFF0B4C4021A060B6
:104310008020FFF72FFE084805210830FFF7E2FF55
:104320000028F8D03C210220FFF74EFC002020702E
:10433000FCF726FF606010BD2000002070B5434DE3
:1043400004462878A0427FD04FF48066082C7BD2A8
:10435000DFE804F0040722272C405E74FFF75AFBC5
:1043600072E0FFF757FB31463948FFF725FC022082
:10437000FFF722FE0120FFF719FE2A210A20FFF78E
:104380000FFE5620FFF726FE3020FFF723FE2E20DB
:10439000FFF720FE32204EE0FFF73CFB31462D4870
:1043A00050E0FFF737FB31462B484BE0FFF732FB7D
:1043B0000120FFF701FE0120FFF7F8FD002108466C
:1043C000FFF7EEFD4220FFF705FE7920FFF702FE22
:1043D000652030E0FFF71EFB31462048FFF7ECFB7D
:1043E0000120FFF7E9FD0120FFF7E0FD0021442057
:1043F000FFF7D6FD4520FFF7EDFD5220FFF7EAFD60
:104400005220FFF7E7FD4F20FFF7E4FD522012E0B6
:10441000FFF700FB0120FFF7CFFD0120FFF7C6FDEE
:1044200000210846FFF7BCFD4520FFF7D3FD7820AB
:10443000FFF7D0FD7420FFF7CDFD05E0FFF7EAFAA6
:1044400031460748FFF7B8FB2C7070BD20000020F4
:10445000EC530008EC5B0008EC570008EC63000824
:10446000EC5F0008FFF7F8BA084B10B513F83040BE
:104470001A4602EBC0028C4203D003F83010012030
:1044800001E05068401C506010BD0000400000205A
:1044900010B5FEF7E1FFBDE81040FFF7F5BE0000E4
:1044A00070B5154D002400BF15F8340008280CD253
:1044B000DFE800F004070F12151A0704E0B200212C
:1044C00001E0E0B20121FEF7B9FF641C032CEBD33D
:1044D00070BD00F05FF80CE000F06EF809E03221EA
:1044E000204600F031F804E04FF4FA71204600F065
:1044F00005F80146E0B2E6E74000002070B5114C37
:104500000546E078002804F1100004D0FFF7EAFE29
:10451000B0B1002010E0FFF7E5FE88B10948143083
:1045200000EBC5004168052902D90521416000E082
:1045300019B1491E41600120E070FCF721FE2061A5
:10454000E07870BD2C00002070B5114C0546A078B5
:10455000002804F10C0004D0FFF7C4FEB0B1002025
:1045600010E0FFF7BFFE88B10948143000EBC5002A
:104570004168142902D91421416000E019B1491E93
:1045800041600120A070FCF7FBFDE060A07870BDE9
:104590002C00002010B505210648FFF789FE0549CB
:1045A000091F28B1087808B1002000E00120087038
:1045B000087810BD3000002010B564210648FFF7D0
:1045C00091FE0549083928B1487808B1002000E07B
:1045D00001204870487810BD3400002010B5064C0A
:1045E000C4E90101002000F009F8FCF7C9FD606191
:1045F000BDE81040FFF786BE5800002002498870D1
:1046000048700870704700005800002010B5784CC2
:10461000607808287AD2DFE800F004315585A7B425
:10462000C1C600F063FB18B10120A070022105E0B3
:1046300000F056FB30B10220A07001210120FFF7ED
:1046400013FF03E0A07808B90620A0700121002024
:10465000FEF766FFA068C16C65481430FFF742FEA4
:1046600050B1606890F87A0020B90420A070FCF77F
:1046700087FDA06100F0BEF8012020E000F036FBCD
:10468000A0B9606890ED010AA068D0ED0E0AB4EE02
:10469000E00AF1EE10FA09D2416B55480C30FFF7F1
:1046A00021FE30B10520FFF7A9FF02E0FCF768FD0D
:1046B000E060012000F054F900F09CF80320FFF7BF
:1046C0003DFE81E0606890F87A0010B12078022801
:1046D00005D0FCF755FD2061002000F057F90120BE
:1046E00000F07AF96068A16890ED000AD1ED0F0A38
:1046F00020EE200AD0ED020AB4EEE00AF1EE10FA44
:1047000005D290F87A0010B1032007E059E038484C
:10471000096C1030FFF7E6FD08B10720A07000F02B
:1047200069F851E0012000F031F918B1002000F0E3
:1047300053F904E00220A070002000F027F900F0F7
:10474000D5FA20B1002000F021F90020A0706068A7
:1047500090F87A0020B9002000F018F90220A0702B
:1047600000F048F80220AAE70720FFF7E7FDA0685D
:10477000816C1F481830FFF7B5FD0028CFD0052009
:10478000CCE700F07BF800210120FFF76DFE002050
:1047900000F0CCFA00F02EF8042090E7002000F0A2
:1047A000C5FA06208BE703210020FFF75DFE0321F9
:1047B0000120FFF759FE00F061F800F01BF805201A
:1047C0007DE70720FFF71AFF00F0AAFA28B10520BD
:1047D000FFF714FF0420FFF7B1FD606890F87D003B
:1047E00010B90720FFF70AFFBDE81040FFF73ABEF7
:1047F000580000200248417801708178417070476C
:10480000580000201C4A10B5D0689FED1A0AF2EE3D
:10481000040A80ED030AC0ED040A002112691BE0BE
:1048200000EBC10390ED031AD3ED060A30EE800AC7
:10483000F4EEC10AF1EE10FA01DDC0ED030AD3ED8A
:10484000060A90ED041AF4EEC10AF1EE10FA01D254
:10485000C0ED040A491CC9B213788B42E0D8117824
:1048600000EE901AF8EE600A80EE201A80ED051A2C
:1048700010BD000000000000740000200948C0685E
:1048800090F8791090F87820114390F87B2011432C
:1048900007D0002180F8791000F8781FC170FEF76A
:1048A00005BE7047740000202DE9FC442A4E9FEDA0
:1048B0002B0A0027C6E9030180ED000AF0680125F4
:1048C000032180ED010A80ED020A80ED030A80EDEC
:1048D000040A80ED050A80F8797080F87A5080F833
:1048E000787080F87B7080F87C5080F87D100F2302
:1048F000104663F3174061F307004FF0020A6AF3B2
:104900000F20072161F31F60FEF784FEFEF780FB96
:10491000FEF7E2FD204634694A4665F30700237836
:1049200094ED020A63F30702102363F30F22636816
:1049300065F30F20414610EE104A65F317406AF305
:10494000070165F31F6067F31F41CDE90045FEF7DE
:1049500097FEBDE8FC840000740000200000000009
:1049600070B5094D0446A878A0420CD0AC701CB1BB
:1049700001210020FEF7D4FDE86880F87B40BDE807
:10498000704000F07FB970BD7400002070B5114D0B
:1049900004466878A0420AD01CB101210020FEF72D
:1049A000BFFDE86880F8794000F06CF96C70E86849
:1049B000B6EE081AD0ED000A90ED020A60EE810A08
:1049C000B4EEE00AF1EE10FA01D2002070BD012031
:1049D00070BD00007400002070B5094D04462878B1
:1049E000A0420CD02C701CB101210020FEF798FDD4
:1049F000E86880F87840BDE8704000F043B970BDC9
:104A000074000020F0B500230022C3F10B0416E06F
:104A100000EBC20191ED000AD1ED020AB4EEE00A0A
:104A2000F1EE10FA0AD2D1F804C0CD6810EE906A07
:104A300081ED020AC1F80CC0C1E90065521C944224
:104A4000E6DC5B1C0B2BDFDBF0BD00002DE9F04149
:104A50002D4C002504F12000A168FFF743FC00283D
:104A60004FD0E07880F00100E070002802D020698B
:104A7000C06901E04FF4FA70A0603CD0234AE068BE
:104A80004FF0000100EBC10393ED060A02EB810336
:104A900001F1010183ED000A0C29F3DB1830FFF767
:104AA000B1FFE16891F87B0028B32269002001235F
:104AB00092F820601DE000BFD1ED040A92ED050AD6
:104AC00001EBC00770EE800A97ED060AF4EEC00A0B
:104AD000F1EE10FA0BD8D2ED060AB4EEE00AF1EED0
:104AE00010FA04DB3F7F03FA07F72F43BDB2401CE7
:104AF000C0B28642E0D8E5802846BDE8F041FEF726
:104B0000B3BDBDE8F081000074000020140B00204C
:104B10007CB501A96846FEF787FEFFF773FE454C9A
:104B20000025E06890F87D10E9B3216990ED040A52
:104B3000D1ED030AB4EEE00AF1EE10FA04D880F8E1
:104B40007A50FCF71DFBE061E068216990ED030AF3
:104B5000D1ED040AB4EEE00AF1EE10FA04DB80F8BD
:104B60007C50FCF70DFBA0612069E168012690ED07
:104B7000030AD0ED0A0A30EE200AD1ED040AB4EEA1
:104B8000E00AF1EE10FA08D8416A2A481C30FFF713
:104B9000A9FB10B1E06880F87A60206990ED040A02
:104BA000D0ED0C0A00E022E0E16830EE600AD1EDC1
:104BB000030AB4EEE00AF1EE10FA09DBC16A1D48FF
:104BC0001830FFF78FFB18B1E06880F87C6003E0D5
:104BD000E06890F87C0038B1E06890F87A1019B17C
:104BE000032180F87D1002E0E06880F87D60BDF868
:104BF0000000BDF80410084305D0E06880F87D503F
:104C000000F87A5F8570E068627990F87C109142D4
:104C100004D190F87A2023799A4209D001B1012178
:104C2000617190F87A0000B10120207100F02AF83B
:104C30007CBD00007400002010B564211048FFF70F
:104C400051FB00281AD00E4C143CE068001DFEF702
:104C500091FCE068FEF7B6FCE0680830FEF7ACF9BE
:104C6000E0681830FEF726FDFFF7F0FEFEF734FE91
:104C7000FEF71EFEBDE81040FFF74ABF10BD000062
:104C80008800002010B5154CE06890F8781021B12C
:104C900090F87A0008B1012100E000210220FEF71F
:104CA0003FFCE06890F8791021B190F87A0008B1E3
:104CB000012100E000210320FEF732FCE06890F8BB
:104CC0007B1021B190F87C0008B1012100E00021A7
:104CD000BDE810400120FEF723BC00007400002056
:104CE0000148C07870470000980000200220FEF7BD
:104CF000E7BA000070B5094C0025064625706570BE
:104D00000120FEF7DDFAA070E0706560A560FEF797
:104D1000B3FA3046BDE8704000F008B898000020B3
:104D200001480078704700009800002001460020EC
:104D3000FEF7D8BA2DE9F0410120FEF7C1FA124C76
:104D400005460126A0780027A8420CD038B160683B
:104D5000322802D9E07800B96670E77002E0FCF70B
:104D60000FFAA060A570002D0CD0FCF709FAA1681D
:104D7000401A6060B0F57A7F04D3E078002801D152
:104D800026706760BDE8F0819800002002030405EA
:104D9000060708090A0B0C0D0E0F10100102030480
:104DA00005060708090A0B0C0D0E0F10000000483D
:104DB00000000200020000000300000000000000EC
:104DC0000000000000040048000004004000000053
:104DD0001200000001000000040000000004004870
:104DE000000004008000000012000000010000002C
:104DF0000400000000000048000002000001000064
:104E00000100000001000000000000000000004858
:104E1000000002000002000012000000010000007B
:104E20000400000000000048000002000004000030
:104E3000120000000100000004000000000400480F
:104E4000000002002000000001000000000000003F
:104E500000040048000008001000000000000000EE
:104E600001000000000000480000080001000000F0
:104E700000000000010000000004004800000200E3
:104E800002000000000400480000080008000000C4
:104E900000000048000008000080000000040048F6
:104EA00000000200040000000100000000000000FB
:104EB000000400480000080001000000010000009C
:104EC0000000000000040048000008000008000086
:104ED000010000000000000000040048000008007D
:104EE00000040000010000000000000000000000BD
:104EF000003E5B4F5B3E3E6B4F6B3E1C3E7C3E1C60
:104F0000183C7E3C181C577D571C1C5E7F5E1C00A5
:104F1000183C1800FFE7C3E7FF0018241800FFE75C
:104F2000DBE7FF30483A060E2629792926407F051F
:104F30000507407F05253F5A3CE73C5A7F3E1C1C35
:104F400008081C1C3E7F14227F22145F5F005F5FF5
:104F500006097F017F006689956A606060606094E1
:104F6000A2FFA29408047E040810207E20100808E6
:104F70002A1C08081C2A08081E101010100C1E0CF1
:104F80001E0C30383E3830060E3E0E060000000083
:104F90000000005F00000007000700147F147F146A
:104FA000242A7F2A122313086462364956205000AF
:104FB00008070300001C2241000041221C002A1C9B
:104FC0007F1C2A08083E0808008070300008080886
:104FD0000808000060600020100804023E514945A6
:104FE0003E00427F400072494949462141494D33C4
:104FF0001814127F1027454545393C4A494931412B
:10500000211109073649494936464949291E0000F8
:10501000140000004034000000081422411414144D
:105020001414004122140802015909063E415D5939
:105030004E7C1211127C7F494949363E4141412242
:105040007F4141413E7F494949417F090909013E6C
:10505000414151737F0808087F00417F4100204093
:10506000413F017F081422417F404040407F021CA5
:10507000027F7F0408107F3E4141413E7F090909BC
:10508000063E4151215E7F09192946264949493288
:1050900003017F01033F4040403F1F2040201F3F4E
:1050A0004038403F631408146303047804036159D3
:1050B000494D43007F414141020408102000414115
:1050C000417F0402010204404040404000030708C1
:1050D0000020545478407F284444383844444428BD
:1050E000384444287F385454541800087E09021864
:1050F000A4A49C787F0804047800447D40002040EC
:10510000403D007F1028440000417F40007C04782F
:1051100004787C080404783844444438FC18242477
:105120001818242418FC7C080404084854545424F7
:1051300004043F44243C4040207C1C2040201C3C74
:105140004030403C44281028444C9090907C44646B
:10515000544C4400083641000000770000004136FE
:10516000080002010204023C2623263C1EA1A16184
:10517000123A4040207A38545455592155557941B6
:105180002254547842215554784020545579400C8B
:105190001E5272123955555559395454545939556E
:1051A0005454580000457C410002457D42000145B1
:1051B0007C407D1211127DF0282528F07C54554545
:1051C000002054547C547C0A097F493249494932B1
:1051D0003A4444443A324A4848303A4141217A3AC2
:1051E00042402078009DA0A07D3D4242423D3D408E
:1051F00040403D3C24FF2424487E4943662B2FFC3D
:105200002F2BFF0929F620C0887E090320545479EA
:10521000410000447D413048484A32384040227ABB
:10522000007A0A0A727D0D19317D2629292F282638
:105230002929292630484D40203808080808080840
:105240000808382F10C8ACBA2F102834FA00007B99
:10525000000008142A142222142A140855005500AC
:1052600055AA55AA55AAFF55FF55FF000000FF009B
:10527000101010FF00141414FF001010FF00FF1096
:1052800010F010F0141414FC001414F700FF0000C8
:10529000FF00FF1414F404FC141417101F10101F47
:1052A000101F1414141F00101010F0000000001F35
:1052B000101010101F10101010F010000000FF1040
:1052C0001010101010101010FF10000000FF14003C
:1052D00000FF00FF00001F10170000FC04F414146E
:1052E0001710171414F404F40000FF00F71414143A
:1052F00014141414F700F7141414171410101F10BA
:105300001F141414F4141010F010F000001F101FDC
:105310000000001F14000000FC140000F010F0104A
:1053200010FF10FF141414FF141010101F000000C1
:1053300000F010FFFFFFFFFFF0F0F0F0F0FFFFFFC5
:105340000000000000FFFF0F0F0F0F0F384444381C
:1053500044FC4A4A4A347E02020606027E027E026B
:1053600063554941633844443C04407E201E200676
:10537000027E020299A5E7A5991C2A492A1C4C72B3
:1053800001724C304A4D4D303048784830BC625A3A
:10539000463D3E494949007E0101017E2A2A2A2ACA
:1053A0002A44445F444440514A444040444A5140A6
:1053B0000000FF0103E080FF000008086B6B083667
:1053C00012362436060F090F0600001818000000D8
:1053D0001010003040FF0101001F01011E00191DC7
:1053E0001712003C3C3C3C00000000000000FEFEA8
:1053F000FEFE3E3E3EFEF8F8F8F8F8E0C000000081
:10540000000000003E3E3E3E3E0000000000000066
:10541000000000000000000000000000000000008C
:1054200000000000FEFEFEFEFE3E3E3E3E3E38F820
:10543000F8F8E0C00000000000003E3E3E3E3E00A6
:10544000000000000000000000000000000000005C
:105450000000000000000000000000E078380000BC
:1054600080F0F83C1C1C1838C00000000000FFFF52
:10547000FFFF0000000000000001FFFFFFFFF80039
:1054800000000000F8F8F8F8F80000000000000044
:10549000C0E0E0383838383838E0E0C000000000BC
:1054A00000000000FFFFFFFFFF0000000000C0C081
:1054B000FF3F3F1F000000000000F8F8F8F8F80078
:1054C000000000000000C0E0E0383838383838E02C
:1054D000E0C00000000000000000000F1C38383C55
:1054E0001F0700000078181E0F0000000000FFFFDB
:1054F000FFFF0000000000000000F8FFFFFFFF00BA
:1055000000000000FFFFFFFFFF0000000000F8FFA9
:10551000FFFFE0E0E0E0202020213F3F3F38000097
:1055200000000000FFFFFFFFFF070707070707074F
:105530001FFEF8F8E00000000000FFFFFFFFFF0083
:1055400000000000E0FFFFFFE1E0E0E0202020207D
:105550003F3F3F38000000000000003878F8FCDCD6
:10556000DCDCDC9C9C9C0C0C0C0C00000000FFFFA5
:10557000FFFFE0E0E0E0E0F8F8FEFF3F1F0700007B
:1055800000000000FFFFFFFFFF0000000000011F00
:105590003FFFE0C0C0C0C0C0C0E0E020000000008D
:1055A00000000000FFFFFFFFFFE0E0E0E0E0E0F8C8
:1055B000FEFFFF3F1F0000000000FFFFFFFFFF0096
:1055C00000000000001F3FFFF8C0C0C0C0C0C0E026
:1055D000E02000000000000000000000F0F0F0B04B
:1055E000B8B9999D9F9F87878783000000000101BC
:1055F00001010101010100000000000000000000A5
:105600000000000001010101010000000000000095
:105610000000000101010101010000000000000084
:105620000000000001010101010101010101000070
:105630000000000000000000000001010101010065
:105640000000000000000000000001010101010055
:10565000000000000000000000000000030303033E
:105660000303030303030101010100000000000024
:10567000000000000000000000000000000000002A
:10568000000000000000000000000000000000001A
:10569000000000000000000000000000000000000A
:1056A00000000000000000000000000000000000FA
:1056B00000000000000000000000000000000000EA
:1056C00000000000000000000000000000000000DA
:1056D00000000000000000000000000000000000CA
:1056E00000000000000000000000000000000000BA
:1056F00000000000000000000000000000000000AA
:105700000000000000000000000000000000000099
:105710000000000000000000000000000000000089
:105720000000000000000000000000000000000079
:105730000000000000000000000000000000000069
:105740000000000000000000000000000000000059
:105750000000000000000000000000000000000049
:105760000000000000000000000000000000000039
:105770000000000000000000000000000000000029
:105780000000000000000000000000000000000019
:105790000000000000000000000000000000000009
:1057A00000000000000000000000000000000000F9
:1057B00000000000000000000000000000000000E9
:1057C00000000000000000000000000000000000D9
:1057D00000000000000000000000000000000000C9
:1057E00000000000000000000000000000C0F0F811
:1057F000FCFCFEFEFF7F7F7F7F7F7F7F7F7F7F7F41
:105800007F7F7F7F7F7F7F7F7F7F7F7F7F7F7F7FA8
:105810007F7F7F7F7F7F7F7F7F7F7F7F7F7F7F7F98
:105820007F7F7F7F7F7F7F7F7F7F7F7F7F7F7F7F88
:105830007F7F7F7F7F7F7F7F7F7F7F7F7F7F7F7F78
:105840007F7F7F7F7F7F7F7F7F7F7F7F7F7F7F7F68
:105850007F7F7F7F7F7F7F7F7F7F7F7FFEFEFEFC5E
:10586000F8F8E0C00000000000000000FFFFFFFFAC
:10587000FFFFFF010000000000000000000000002A
:105880000000000000000000000000000000000018
:105890000000000000000000000000000000000008
:1058A000F0E0E0C0C08080000000000000000000C8
:1058B00000000000000000000000000000000000E8
:1058C00000000000000000000000000000000000D8
:1058D00000000000000000000000000000FFFFFFCB
:1058E000FFFFFFFF0000000000000000FFFFFFFFC0
:1058F000FFFFFF00000000000000000000000000AB
:105900000000000000000000000000000000000097
:105910000000000000000000000000000000000087
:10592000FFFFFFFFFFFFFFFFFEFEFCFCF8F8F0F0BB
:10593000E0E0C0C080800000000000000000000027
:105940000000000000000000000000000000000057
:1059500000000000000000000000000000FFFFFF4A
:10596000FFFFFFFFF8F0F0F0F0F0F0F0FFFFFFFFB7
:10597000FFFFFF0000000000000101030306060E08
:105980000E1E1C3C7C7CFCF8F8F8F8F8F8F0F0F0FF
:10599000F0F0E0E0E0E0C0C0C0C0C0C08080808027
:1059A000FFFFFFFFFFFFFFFFFFFFFFFFFFFFFFFF07
:1059B000FFFFFFFFFFFFFFFEFEFCFCF8F8F0F0E04A
:1059C000E0C0C08080000000000000000000000077
:1059D00000000000000000000000000000FFFFFFCA
:1059E000FFFFFFFFFFFFFFFFFFFFFFFF00FFFFFFC6
:1059F000FFFFFF00000000000000000000000000AA
:105A000000000000000000000101030307070F1F52
:105A10001F3F3F7F7FFFFFFFFFFFFFFFFFFFFFFFF6
:105A2000FFFFFFFFFFFFFFFFFFFFFFFFFFFF03037E
:105A300003030307070707070F0F0F0F0F1F1F1F92
:105A40001F1F3F3F3F3F3F7E7C7C787870F0E0E057
:105A5000C0C08080000000000000000000FFFFFFC9
:105A6000FFFFFFFFFFFFFFFFFFFFFFFF00FFFFFF45
:105A7000FFFFFF0000000000000000000000000029
:105A80000000000000000000000000000000000016
:105A9000000000000000000101030307070F0F1FB3
:105AA0001F3F7F7FFFFFFFFFFFFFFFFFFFFF0000A4
:105AB00000000000000000000000000000000000E6
:105AC00000000000000000000000000000000000D6
:105AD00000000101010000000000000000FFFFFFC6
