:020000040800F2
:100000005013002001180008091800080B180008F8
:100010000D1800080F180008111800080000000053
:10002000000000000000000000000000474C000835
:100030001518000800000000E54A0008494C0008B7
:100040001B1800081B1800081B1800081B180008C4
:100050001B1800081B1800081B1800081B180008B4
:100060001B1800081B1800081B1800081B180008A4
:100070001B1800081B1800081B1800081B18000894
:10008000D11F00081B1800081B1800081B180008C7
:100090001B1800081B1800081B1800081B18000874
:1000A0001B1800081B1800081B1800081B18000864
:1000B0001B1800081B1800081B1800081B18000854
:1000C0001B1800081B1800081B1800081B18000844
:1000D0001B1800081B1800081B1800081B18000834
:1000E0001B1800081B1800081B1800081B18000824
:1000F0001B1800081B1800081B1800081B18000814
:100100000000000000000000000000001B180008B4
:100110001B1800081B1800081B1800081B180008F3
:100120001B1800081B1800081B1800081B180008E3
:100130001B1800081B180008000000000000000049
:100140001B1800081B1800081B18000800000000FE
:10015000000000000000000000000000000000009F
:1001600000000000000000001B1800081B18000819
:100170001B18000800000000000000000000000044
:10018000000000001B180008DFF80CD000F006F893
:1001900000480047ED74000850130020064C074D3E
:1001A00006E0E06840F0010394E807009847103447
:1001B000AC42F6D3FFF7ECFFE001000800020008B4
:1001C00002E008C8121F08C1002AFAD17047704720
:1001D000002001E001C1121F002AFBD1704700007E
:1001E000000200080000002018010000C001000803
:1001F000180300081801002038120000D001000880
:1002000000000000010000000000000000000000ED
:1002100000000000000000000000000000000000DE
:1002200000000000000000000000000000000000CE
:1002300000000000000000000000000000000000BE
:1002400000000000000000000000000000000000AE
:10025000000000000000000000000000000000009E
:100260000700000000000000070000000000000080
:100270000700000000000000000000000000000077
:10028000000000000000000000000000000000006E
:10029000000000000000000000000000000000005E
:1002A000000000000000000000000000000000004E
:1002B00000000000640000000000000000000000DA
:1002C000000000000000000000000000000000002E
:1002D000000000000000000000000000000000001E
:1002E000000000000000000000000000000000000E
:1002F00000000000000000000000000000000000FE
:1003000000127A0000000000000000000000000061
:080310000000000000000000E5
:020000040800F2
:101800000648804706480047FEE7FEE7FEE7FEE79A
:10181000FEE7FEE7FEE7FEE7FEE7FEE7554D0008C0
:1018200089010008202A04DB203A21FA02F0002175
:10183000704721FA02F3D040C2F1200291400843E0
:101840001946704740EA01039B0703D009E008C925
:10185000121F08C0042AFAD203E011F8013B00F875
:10186000013B521EF9D27047D2B201E000F8012BC1
:10187000491EFBD270470022F6E710B513460A4610
:1018800004461946FFF7F0FF204610BD30B5044668
:101890000020034600E05B1C934203D2E05CCD5C79
:1018A000401BF8D030BD2DE9FE4F81EA030404F05F
:1018B000004421F0004100944FF0000B23F000435E
:1018C00050EA01045ED052EA03045BD0C3F30A5429
:1018D000C1F30A552C44A4F2F3340194A0FB025442
:1018E000C1F3130141F48011C3F3130343F48013D4
:1018F00001FB024400FB034E840A970A44EA815428
:1019000047EA8357A4FB076802958D0A05FB078504
:101910004FEA932C04FB0C542705029D4FEA06580E
:1019200047EA1637B5EB08056EEB070C870E920EEB
:1019300047EA811742EA8312A7FB0201B6EB0B01CB
:1019400064EB00042B0D43EA0C335E1844EB1C508F
:10195000DA465146E7FB0201C5F313044FEA0B33A5
:1019600043EA14534FEA0432019C43EA0603A4F10C
:101970000C040294009CCDE900B400F080F903B09F
:10198000BDE8F08F00200146F9E72DE9F04D81EA2E
:10199000030404F0004B21F0004514464FF0000A08
:1019A00023F0004150EA050220D054EA01021DD084
:1019B000C5F30A570246C5F31303C1F31300C1F37D
:1019C0000A5640F4801543F48013A7EB0608101B59
:1019D000D64608F2FD3873EB050002D308F1010882
:1019E00001E092185B41B8F1000F03DA00200146D4
:1019F000BDE8F08D00204FF48011064684460EE0CD
:101A0000171B73EB050705D3121B63EB0503064396
:101A10004CEA010C49084FEA300092185B4150EA49
:101A20000107EDD152EA030012D082EA040083EAF2
:101A30000501084305D0101BAB4106D2012200234B
:101A400006E000224FF0004302E06FF00102531065
:101A50001AEB06004CEB085110EB0A0041EB0B01AE
:101A6000BDE8F04D00F0FCB80EB5C10F80EAE070A3
:101A70000844CA07002140F233438DE80E000A46AD
:101A80000B4600F0FCF803B000BD0EB540F2334148
:101A900002910021CDE900110A460B4600F0EFF853
:101AA00003B000BDC1F30A5210B5C1F3130140F2F7
:101AB000FF3341F480119A4201DA002010BD40F258
:101AC00033439A42A2F2334203DC5242FFF7AAFEAA
:101AD00010BD904010BD00F0004230F000400AD030
:101AE000C10D01F56071C0F3160042EA0151C20850
:101AF00040071143704700200146704730B5041E6F
:101B000071F1000404DB4FF00044404264EB01013A
:101B1000141E73F1000405DB1C464FF000435242D3
:101B200063EB04038B4208BF824230BD01F00043E7
:101B300030B421F0004150EA010206D00A0DA2F5AE
:101B40006072C1F31301002A02DC30BC0020704730
:101B5000440F44EAC104C100E01830BC00EBC2509D
:101B600000F047B830B50B46014600202022012482
:101B700009E021FA02F59D4205D303FA02F5491B5B
:101B800004FA02F52844151EA2F10102F1DC30BD71
:101B90002DE9F05F0546002092469B4688460646A2
:101BA000814640241BE02846414647462246FFF72F
:101BB00039FE53465A46C01A914110D31146184671
:101BC000224600F081F92D1A67EB01084F462246A4
:101BD0000120002100F078F917EB00094E41201E8A
:101BE000A4F10104DFDC484631462A464346BDE8FD
:101BF000F09F0029A8BF7047401C490008BF20F093
:101C00000100704710B4B0FA80FC00FA0CF050EA02
:101C1000010404BF10BC704749B1CCF1200421FA83
:101C200004F411FA0CF118BF012121430843A3EB7E
:101C30000C01CB1D4FEA00614FEA102042BF00208B
:101C400010BC704700EBC35010440029A4BF10BC67
:101C50007047401C490008BF20F0010010BC7047CD
:101C600010B5141E73F1000408DA401C41F10001A4
:101C700092185B411A4301D120F0010010BD2DE9FB
:101C8000F04D92469B4611B1B1FA81F202E0B0FAF2
:101C900080F22032904600F017F904460F4640EAE1
:101CA0000A0041EA0B0153465A46084313D0114635
:101CB00053EA010019D0C8F140025046FFF7B2FDC7
:101CC00005460E4650465946424600F0FDF8084388
:101CD00005D0012004E020463946BDE8F08D002003
:101CE000054346EAE0762C4337430A986305E40A45
:101CF000A0EB08000022FD0A44EA47540A3002D54E
:101D000000200146E9E7010510196941DDE90845B0
:101D100000196941BDE8F04DA2E72DE9FE4F80466C
:101D200081EA0300C00F0C46009021F0004123F02F
:101D30000045B8EB0200A94105D240462146904635
:101D40001C460B46024623F00040104347D0270DA7
:101D5000C7F30A00C3F30A510290401A01904028C9
:101D60006BDAC3F3130040F4801B0098924620B155
:101D70000023D2EB030A63EB0B0B01985946C0F129
:101D80004002504600F0A0F806460D46504659461F
:101D9000019A00F0A8F810EB08006141002487EADE
:101DA000115284EAE7731A4340D0009A62B3019A51
:101DB000012A4FEA075215DC001B61EB02014FF0CC
:101DC000004202EA0752CDE90042001C41F58011B1
:101DD00032462B46FFF753FF03B0BDE8F08F404675
:101DE0002146F9E7001B61EB0201001C41F580135D
:101DF00000185B412018A2F5001747EB030140EAE9
:101E0000D570B6196D4111E06D084FEA360645EA06
:101E1000C0754FEA0752001B61EB0201001C41F53F
:101E2000801149084FEA30000019514132462B46D3
:101E300003B0BDE8F04FFFF713BF00980122400048
:101E40000023D0EB020263EBE073009821464FEAD7
:101E5000E074B8EB000061EB0401E9E783F00043B4
:101E60005BE781F0004158E7C1F30A52C1F3130167
:101E700040F2FF3341F480119A4202DA0020014619
:101E8000704740F233439A42A2F2334202DC52429C
:101E9000FFF7C8BC00F018B830B5041E71F100049B
:101EA00004DB4FF00044404264EB0101141E73F167
:101EB000000405DB1C464FF00043524263EB040371
:101EC000994208BF904230BD202A04DB203A00FA34
:101ED00002F1002070479140C2F1200320FA03F381
:101EE000194390407047202A06DBCB17203A41FA6D
:101EF00002F043EAE07306E041FA02F3D040C2F197
:101F000020029140084319467047000070B504460E
:101F10000068816801F00301012926D10168C90721
:101F200023D0816801F00D01012910D1816841F0B1
:101F30000201816021680320086001F079F90546FB
:101F40000FE000BF01F074F9401B022809D9606C52
:101F500040F010006064A06C40F00100A06401201B
:101F600070BD20688068C007ECD1002070BD000003
:101F700070B504460068816801F00301012902D1AF
:101F80000168C90720D18168104A11420DD18168CA
:101F900041F00101816001F04BF905460FE000BFFF
:101FA00001F046F9401B022809D9606C40F010008E
:101FB0006064A06C40F00100A064012070BD206846
:101FC0000068C043C007EBD1002070BD3F00008017
:101FD000014800F009BD0000F802002010B50468B7
:101FE00063604368102B036803D099600068C26087
:101FF00010BD9A600068C16010BD00000649002055
:10200000C8610648016941F004010161016941F0BC
:1020100040010161704700001801002000200240CB
:10202000064A0021D16106490A6942F002020A61AA
:102030004861086940F040000861704718010020BD
:1020400000200240044B0022DA61044A136943F085
:102050000103136101807047180100200020024035
:102060000A490020CA68D306094A04D5D06940F05D
:102070000200D0611020CB685B0705D5D36943F01F
:102080000103D36140F00400C860704700200240A3
:102090001801002070B5054601F0CAF80646104C3C
:1020A00009E0681C07D025B101F0C2F8801BA842E6
:1020B00001D9032070BDE068C007F2D1E068800656
:1020C00001D52020E060E068C00602D4E068400747
:1020D00003D5FFF7C5FF012070BD002070BD0000D3
:1020E00000200240F0B595B00024009490F8402004
:1020F0002546012A19D0012780F8407003689A68A4
:1021000052077CD44A681F26052A11D2D3F830C062
:1021100002EB4202520096402CEA060C0E689640F2
:102120004CEA060CC3F830C035E0022015B0F0BD13
:102130000A2A0FD2D3F834C0521F02EB42025200D7
:1021400096402CEA060C0E6896404CEA060CC3F842
:1021500034C020E00F2A0FD2D3F838C00A3A02EB7D
:102160004202520096402CEA060C0E6896404CEA59
:10217000060CC3F838C00EE0D3F83CC00F3A02EBAF
:102180004202520096402CEA060C0E6896404CEA39
:10219000060CC3F83CC00268936813F00C0F4FF0B4
:1021A000070374D1D1F800E0BEF10A0F10D396698D
:1021B000AEF10A0E0EEB4E0C03FA0CFE26EA0E06EA
:1021C000D1F808E00EFA0CFE46EA0E0696610FE022
:1021D000D2F814C00EEB4E0603FA06FE2CEA0E0CE3
:1021E000D1F808E00EFA06FE4CEA0E0CC2F814C054
:1021F00002684E69D2F80CC0CCF3C10C00E0FDE0DF
:102200004FEA4C0C06FA0CF6D1F810E0DFF848C2A1
:10221000BEF1010F42D0BEF1020F4DD0BEF1030F4F
:1022200058D0BEF1040F63D0166E91F800C006F0CE
:10223000F846B6EB8C6F03D1166E26F00046166694
:102240000268566E91F800C006F0F846B6EB8C6F47
:1022500003D1566E26F0004656660268966E91F8D7
:1022600000C006F0F846B6EB8C6F03D1966E26F0F0
:10227000004696660268D66E91F800C006F0F846F1
:10228000B6EB8C6F03D1D66E26F00046D666026898
:10229000966806F00306012E3AD136E0D2F860E0E7
:1022A0000EEA0C0E91F800C046EA8C664EEA060E65
:1022B0004EF000461666EAE7D2F864E00EEA0C0E2D
:1022C00091F800C046EA8C664EEA060E4EF00046D3
:1022D0005666DCE7D2F868E00EEA0C0E91F800C012
:1022E00046EA8C664EEA060E4EF000469666CEE74B
:1022F000D2F86CE00EEA0C0E91F800C046EA8C664B
:102300004EEA060E4EF00046C0E71668F6077AD190
:10231000CE68012E06D052F8B03F0E78B740BB43CE
:10232000136021E052F8B06F91F800C007FA0CF783
:102330003E4316600A680A2A0BD30668B769093A51
:1023400002EB420293409F438B6893401F43B76167
:102350000AE007687E69521C02EB420293409E43EA
:102360008B6893401E437E6103684FF0A0473B4E4D
:10237000BB4201D0B34201D1394A00E0394A096871
:10238000102904D0112907D012290AD03BE0D2F835
:1023900008C04FEA0C2C08E0D2F808C04FEACC1C69
:1023A00003E0D2F808C04FEA4C2CBCF1000F2ADB46
:1023B000BB420DD0B34201D100970CE02A4EDFF8AA
:1023C000ACC0B34202D1CDF800C004E0634501D1F6
:1023D000009600E000959E6806F00306012E02D1EB
:1023E0001E68F6070AD1009E8EB1B66806F0030695
:1023F000012E0CD1009E3668F60708D0416C41F0E2
:1024000020014164012480F8405020468EE61029C6
:1024100008D011291AD01229F5D1916841F4800110
:102420009160F0E7BB42EED1916841F40001916008
:102430000F49104A0968B1FBF2F101EB8101490033
:1024400000E0491E00910029FBD1DCE7BB42DAD154
:10245000916841F08071E3E700F0FF8300010050D4
:102460000003005000070050000400500005005019
:102470000001002040420F000068006C704700001F
:10248000F0B54FF0000695B004003746354600968B
:1024900005D0606CC00649D4606C18B134E00120EE
:1024A00015B0F0BDA5642565E56484F8405020466C
:1024B00000F00AF920688068C00025D42046FFF7A4
:1024C00025FD0646606C00F0100131431CD1606CA4
:1024D00020F4885040F0020060642068816821F098
:1024E000405181602068816841F0805181606D4871
:1024F0006D490068B0FBF1F000EB8000400000E0A7
:10250000401E00900028FBD120688168C90002D5D8
:10251000806880000AD5606C20F0020040F0100056
:102520006064A06C40F00100A0640126606C00F0C3
:102530001000304373D12068816849076FD4616C03
:1025400021F4807141F0020161644FF0A04E574BBD
:10255000704501D0984201D1554A00E0554ADFF854
:1025600058C15649704501D100930EE0984202D1FE
:10257000CDF800E009E0884202D1CDF800C004E0C7
:10258000604501D1009100E00095836803F00303EA
:10259000012B02D10068C00710D1009840B18068BB
:1025A00000F00300012803D100980068C00705D19E
:1025B0009068636820F4403018439060D4E90220AA
:1025C0001043A26B012A02D04FF4805300E0002395
:1025D000E26943EA42331843636A3843012B0AD164
:1025E000F2B1626C22F0020242F020026264A26C3C
:1025F00042F00102A264E26A012A21D023688B42E0
:1026000001D0634518D14FF430774FF4E071BA42EE
:1026100013D04FF480739A420AD139460DE038E066
:10262000228D274B03EB4242024342F48030E2E723
:102630008A4201D1194600E011460143206B08434C
:1026400021688A6812F00C0F0AD1CA6844F20203AA
:102650009A43CA60A169626B890341EA4201084357
:102660002168CA68174B1A400243CA6020690128D2
:102670002068016B21F00F0102D1226A521E114322
:102680000163A564606C20F0020040F0010060640A
:1026900006E0606C20F0020040F01000606401264B
:1026A0003046FDE60001002040420F0000010050CE
:1026B00000030050000700500005005000040050C7
:1026C0000000FEFF07C0F0FF00B5006887B0B0F162
:1026D000A04F13D10A48416941F0805141614069DE
:1026E000694600F080500590022000900320019080
:1026F000002002904FF0904000F0CCFC07B000BDED
:10270000001002402DE9F04104460068806840074F
:1027100070D494F8400001280CD0012084F84000C7
:102720002046FFF725FC03004FF0000605D084F893
:10273000406086E00220BDE8F081606C40F60161F7
:10274000884340F48070606420684FF0A0413E4AA6
:102750003E4D884201D0904202D1D1F8087300E08A
:102760002F6817F01F0F3A4F03D0884201D0B842AC
:102770000BD1D4F844C02CF4801CC4F844C0D0F869
:102780000CC05FEA8C1C14D41BE0D4F844C04CF499
:10279000801CC4F844C0904202D1D1F80CC005E0BE
:1027A000DFF8ACC00CF10C0CDCF800C01CF0007FB2
:1027B00007D0D4F844C02CF4005C4CF4805CC4F81E
:1027C00044C0D4F844C05FEACC4C06D5D4F848C025
:1027D0002CF0060CC4F848C000E0A66484F8406001
:1027E0001C2606602068884201D0904203D1D1F8AF
:1027F000084301E024E02C6814F01F0F1BD088422E
:1028000001D0904202D1D1F8084300E02C6804F0D6
:102810001F04052C0FD0884201D0904202D1D1F87C
:10282000082300E02A6802F01F02092A03D0884228
:1028300001D0B84205D1816841F00401816000E017
:102840000223184677E700000001005008070050F7
:10285000000400502DE9F041040004D094F8390040
:10286000002518B107E00120BDE8F08184F8385058
:10287000204600F095F8022084F8390020680168AD
:1028800021F0020101602068016841F0010101604E
:1028900000F0CEFC0746032605E000BF00F0C8FCB0
:1028A000C01B0A2863D820684068C007F6D020689B
:1028B0004168C90769D0A169012901683FD021F0A9
:1028C00080010160E0690128206801683AD021F0A8
:1028D00040010160206A01282068016835D021F09C
:1028E00020010160606A01282068016830D021F071
:1028F00010010160A06A0128206801682BD021F036
:1029000008010160E06A01282068016826D021F0F2
:1029100004010160D4E902010843D4E9041211431F
:1029200008436168491E08432168C861206801683E
:1029300021F00101016000F07BFC07461DE041F041
:102940008001BEE741F04001C3E741F02001C8E744
:1029500041F01001CDE741F00801D2E741F0040158
:10296000D7E700BF00F064FCC01B0A2805D984F833
:10297000396084F83850032076E720684068C00743
:10298000F0D120684068C00703D0042084F83900E3
:1029900069E7E563012084F83900002064E700005E
:1029A00000B500680E4987B0884217D10D48C1694B
:1029B00041F00071C161C069694600F00070059086
:1029C0004FF4C0500090022001900020029003209C
:1029D000039009200490C00600F05CFB07B000BD26
:1029E00000640040001002402DE9F05F0446F94AFF
:1029F000F84DF84EF74F0068DFF8D893DFF8D4A30E
:102A0000DFF8D0B3D114783D643E503F4FF4000E50
:102A10004FF4004C4FF40028A9F13C09AAF1280A10
:102A2000ABF1140B904221D9EB4A1368A8420FD0A6
:102A3000B0420FD0B84213D0484513D0504513D000
:102A4000584501D1724624E0E34A083290423CD115
:102A500008221EE080221CE0DF4A3032904239D149
:102A60000A4616E0624614E0424612E0D94A803A2D
:102A70001368A842ECD0B042ECD0B842F0D0484540
:102A8000F0D05045F0D05845DCD0D24A9042DBD14E
:102A90000205134279D00268D243120775D4026846
:102AA00022F008020260CB4A2068904232D9A84244
:102AB00019D0B0421DD0B84228D0484523D0504547
:102AC00023D058450BD1714620E0C34A1C329042B6
:102AD000C2D1BFE7C04A44329042C5D1C2E7BE4A24
:102AE0000832904201D1082110E0BB4A1C329042CA
:102AF00001D180210AE0B84A3032904206D0B6496E
:102B00004431884201D1614600E04146B248001D8F
:102B100001602CE0A84214D0B04218D0B84223D0B3
:102B200048451ED050451ED0584501D171461BE086
:102B3000904202D14FF0006116E0A74A083290425D
:102B400001D1082110E0A44A1C32904201D1802119
:102B50000AE0A14A3032904206D09F49443188426F
:102B600001D1614600E041469A4880384160A06B3F
:102B700040F00100A063042084F82100002084F8C4
:102B80002000216B09B120468847924A2068111520
:102B90004FF4800E4FF4804C4FF48028904221D99E
:102BA0008D4A1368A8420FD0B0420FD0B84213D05C
:102BB000484513D0504513D0584501D1724624E002
:102BC000854A083290423FD104221EE040221CE098
:102BD000814A303290423CD10A4616E0624614E007
:102BE000424612E07B4A803A1368A842ECD0B042D9
:102BF000ECD0B842F0D04845F0D05045F0D0584520
:102C0000DCD0744A9042DBD1C204134275D0026812
:102C1000D243520771D40268920603D4026822F0AC
:102C2000040202606B4A2068904232D9A84219D04F
:102C3000B0421DD0B84228D0484523D0504523D0BB
:102C400058450BD1714620E0634A1C329042BFD1F7
:102C5000BCE7614A44329042C2D1BFE75E4A0832C3
:102C6000904201D1042110E05B4A1C32904201D114
:102C700040210AE0584A3032904206D05649443149
:102C8000884201D1614600E041465348001D016081
:102C90002CE0A84214D0B04218D0B84223D0484506
:102CA0001ED050451ED0584501D171461BE09042C0
:102CB00002D14FF0806116E0474A0832904201D1BC
:102CC000042110E0444A1C32904201D140210AE024
:102CD000414A3032904206D03F494431884201D1C6
:102CE000614600E041463B4880384160112084F84D
:102CF0002100E16A09B120468847364A206851150B
:102D00004FF4005C4FF4003E904228D9324B1B68D0
:102D1000A84212D0B04213D0B8421AD048451AD0B7
:102D200050451AD0584502D14FF400182AE0DFF878
:102D3000A88008F10808404544D14FF0020821E07E
:102D40004FF020081EE0DFF8908008F13008404581
:102D500044D1884616E0E04614E0F04612E01D4BF0
:102D6000803B1B68A842E8D0B042E9D0B842F0D01E
:102D70004845F0D05045F0D05845D5D09042D6D1F6
:102D80004FF0007813EA080F70D00368DB439B070D
:102D90007FD403689B0603D4036823F00203036017
:102DA0002068904239D9A84221D0B04225D0B842FB
:102DB0002FD048452AD050452AD0584513D14FF43A
:102DC000001126E0DFF8108008F11C084045BAD158
:102DD000B6E700008000024000040240DFF8B8803F
:102DE0004045BAD1B7E72C4A3C3A904201D1022182
:102DF0000FE0294A283A904201D1202109E0264AD1
:102E0000143A904205D02449884201D1614600E03D
:102E100071462148403801602CE0A84215D0B042EC
:102E200019D0B84224D048451ED050451FD058452F
:102E300002D14FF400111BE0904202D14FF000711B
:102E400016E0154A3C3A904201D1022110E0124AA4
:102E5000283A904201D120210AE00F4A143A9042C8
:102E600006D00D49884202D1614601E011E0714669
:102E70000A484160A06BA063012084F82100002073
:102E800084F82000A16A002903D02046BDE8F05F45
:102E90000847BDE8F09F00004404024000000240E3
:102EA00070B520B190F82110002411B103E0012089
:102EB00070BD80F82040022180F8211003681A6854
:102EC00043F6F0718A43D0E901152943D0E903564E
:102ED000354329434569294385692943C569294300
:102EE000114319608463012180F82110002070BD16
:102EF00070B5044690F82000012823D0012084F802
:102F00002000022084F821002068056825F00105D2
:102F100005602046FFF762F82068016841F0020171
:102F200001602068016841F00401016020680168C7
:102F300041F0080101602068016841F00101016071
:102F4000002070BD022070BD2DE9F04705462648DF
:102F50000F460126017E01290FD00121814601760D
:102F60002868DFF888804CF25034012808D0A24647
:102F70002046FFF78FF8A0B130E00220BDE8F087CF
:102F80002046FFF787F800BBFFF738F82046FFF729
:102F900081F8D8F81010064621F00401C8F8101086
:102FA0001CE04FF0FF3038606C6811E02046FFF7FE
:102FB00037F85046FFF76EF8D8F81010060021F0E9
:102FC0000201C8F8101001D03C6007E004F500646D
:102FD000D5E9010100EBC120A042E7D8002189F822
:102FE00018103046CAE700001801002000200240F7
:102FF0002DE9F05F07461C4888460024017E1546EF
:103000001E46012909D00121814601764CF2503A31
:103010005046FFF73FF818B122E00220BDE8F09FCC
:10302000012F02D0022F00D00427D346DFF83CA0A6
:10303000220128463146FEF7F5FB81B208EB440039
:10304000FFF700F85846FFF725F8DAF8102022F0CD
:103050000102CAF8102018B9641CE4B2BC42E7D3DC
:10306000002289F81820D9E718010020002002402A
:1030700005480169090605D50449416004494160D4
:10308000002070470120704700200240230167455F
:10309000AB89EFCD2DE9F84FDFF864B100234FF095
:1030A000010C4FF0030A4FF00F090BF1040EA0E0E2
:1030B0000CFA03F6324072D04C68022C01D0122C6C
:1030C0000ED1DC0800EB8408D8F820405D07EF0E35
:1030D00009FA07F5AC430D69BD402543C8F82050F7
:1030E00007685D0091F804800AFA05F408F0030807
:1030F000A74308FA05F848EA0708C0F800804F68B7
:10310000012F05D0022F03D0112F01D0122F11D182
:103110008768D1F80C80A74308FA05F848EA070841
:10312000C0F808804768B7430E79C6F300169E4082
:103130003E434660C668A6438C68AC403443C460D6
:103140004C68E40054D52F4CA56945F00105A561F4
:10315000A46923F0030504F0010400942A4C2E19FD
:10316000B4689D072F0F09FA07F5AC43B0F1904FF3
:1031700004D0264DA84203D1012512E0002510E01D
:10318000234DA84201D102250BE0224DA84201D1D6
:10319000032506E0204DA84202D1042501E027E0E6
:1031A0000525BD402543B560DBF800405D464E680F
:1031B0009443F60300D514432C60DEF800407546B6
:1031C0004E689443B60300D514432C600C4D08356B
:1031D0002C684E689443F60200D514432C60084DC9
:1031E0000C352C684E689443B60200D514432C600D
:1031F0005B1C0A6832FA03F47FF45AAFBDE8F88F1B
:10320000000401400010024000000140000400489A
:1032100000080048000C0048001000480069084001
:1032200000D0012070470AB1816170478162704708
:1032300001480068704700000000002090F841201D
:10324000202A24D190F84020012A20D0012280F8A1
:103250004020242280F841200268136823F00103F3
:1032600013600268136823F48053136002681368C4
:103270000B43136001680A6842F001020A602021D2
:1032800080F84110002180F8401008467047022065
:103290007047000070B5040004D094F84100002588
:1032A00010B106E0012070BD84F84050204600F0C7
:1032B00075F9242084F841002068016821F001019B
:1032C00001606068216820F0706008612068816892
:1032D00021F400418160A06830B1E168012907D084
:1032E00040F4044021688860E068022803D006E0CA
:1032F00040F40040F6E721684FF400604860206821
:1033000041680F4A11434160D4E904010843A169AF
:1033100040EA01202168C860D4E907010843216818
:1033200008602068016841F00101016065642020A7
:1033300084F84100256384F84250002070BD0000ED
:10334000008000022DE9F84F044690F84100DDF8B6
:1033500028A01F4690468B4620287DD194F8400037
:10336000012879D0012084F84000FFF761FF06466C
:10337000012200901923D103204601F075FA48BBC1
:10338000222084F84100102084F842000025656462
:10339000C4F8248067856563618DFF274FF4105062
:1033A0004FF080784FF00079FF2903D927853A46FE
:1033B000009033E0618D2185009034E0594620462D
:1033C00001F040FA33E000BF01F078FA18B1606C08
:1033D000042848D019E02068416A606A421C626291
:1033E0000170208D401E0004000C2085618DA1F12C
:1033F000010161851BD1608DC8B153460022802137
:103400002046009601F030FA10B10320BDE8F88F95
:10341000608DFF2804D927853A4600954346CDE7BD
:10342000608D2085009594F828204B46C6E7608D76
:103430003246002851462046C6D101F07FFA0028C6
:10344000C5D121682020C86121684A68084B1A400C
:103450004A6084F8410000E007E084F8425084F8B4
:1034600040500020D2E70120D0E70220CEE7000044
:1034700000E800FE2DE9F84F044690F84100DDF821
:1034800028A01F4690468B4620287CD194F8400007
:1034900001287FD0012084F84000FFF7C9FE0646CE
:1034A000012200901923D103204601F0DDF938BB39
:1034B000212084F84100102084F842000025656432
:1034C000C4F8248067856563618D4002FF274FF053
:1034D00080784FF00079FF2903D927853A4600907C
:1034E00031E0618D2185009032E05946204601F09F
:1034F000A9F931E001F049FA18B1606C042847D00D
:1035000018E0606A411C6162216800788862608D01
:10351000401E6085208D401E0004000C20851BD1BC
:10352000608DC8B15346002280212046009601F0EC
:103530009BF910B10320BDE8F88F608DFF2804D9F6
:1035400027853A4600954346CFE7608D2085009554
:1035500094F828204B46C8E7608D32460028514633
:103560002046C7D101F0EAF90028C6D12068202101
:10357000C16120684368084A1340436084F84110E1
:1035800084F8425000E005E084F840500020D2E783
:103590000120D0E70220CEE700E800FE70B5006809
:1035A000164E1221012203230425154C86B0B04289
:1035B0000ED1C0208DE82F0069461248FFF76AFD42
:1035C000E06940F40010E061E06900F4001012E0EE
:1035D0000D4EB04210D14FF4C0608DE82F00694607
:1035E0004FF09040FFF756FDE06940F48000E06145
:1035F000E06900F48000059006B070BD0054004002
:1036000000100240000400480058004002480168D1
:10361000491C01607047000000000020074810B5F9
:10362000016841F010010160032000F081F80020E2
:1036300000F006F800F018F8002010BD002002404D
:1036400010B5044607484FF47A710068B0FBF1F0FA
:1036500000F0A2FF00222146501E00F049F8002091
:1036600010BD0000000100201A4808B5816941F032
:1036700001018161806900F001000090032000F0E9
:1036800057F8002211466FF00B0000F031F80022CD
:1036900011466FF00A0000F02BF8002211466FF07F
:1036A000090000F025F800221146501F00F020F814
:1036B00000221146101F00F01BF800221146901E38
:1036C00000F016F80022BDE808401146501E00F038
:1036D0000FB800000010024000F01F0201219140CD
:1036E0004009800000F1E020C0F8001170470000A0
:1036F000F0B40E4B1B680C46C3F30223C3F107055D
:10370000042D00D90425191D072901D2002300E04A
:10371000DB1E012606FA05F1491E214099409E4014
:10372000761E16403143F0BC01F0CCB90CED00E040
:10373000064900F0070208684FF6FF03184040EA08
:103740000220034A10430860704700000CED00E0BF
:103750000000FA052DE9F84F04460068804DC003CB
:103760006FD5E8690026C00008D4E86940F08050B1
:10377000E861E869012600F080500090794801680E
:10378000C90512D40168804641F480710160FFF7D9
:103790004FFD074605E000BFFFF74AFDC01B642848
:1037A00035D8D8F80000C005F6D5286A10F4407066
:1037B00053D0A18801F4407181424ED0286A4FF461
:1037C000803191FAA1F2B2FA82F29700664A4FF084
:1037D0000108174420F44070C7F8008491FAA1F161
:1037E000B1FA81F102EB81010023C1F800342862B3
:1037F000C00732D0FFF71CFD074641F2883A4FF070
:10380000020907E0FFF714FDC11B514502D903204F
:10381000BDE8F88F99FAA9F1B1FA81F141F04001C0
:103820004846B8EB511F01D129680CE090FAA0F18D
:10383000B1FA81F141F04001B0EB511F02D1296A88
:1038400001E015E0696A99FAA9F0B0FA80F000F099
:103850001F0008FA00F21142D4D0286A616820F4EF
:103860004070084328621EB1E86920F08050E8618A
:103870002078C00705D0286BA16820F0030008431A
:1038800028632078800705D5286BE16820F4403054
:10389000084328632078400705D5286B216920F468
:1038A0004020084328632078800605D5286BE1690D
:1038B00020F01000084328632068800305D568685D
:1038C000A16B20F48000084368602078400605D58D
:1038D000286B216A20F02000084328632078000725
:1038E00005D5286B616920F44010084328632078CF
:1038F000C00605D5286BA16920F440000843286361
:103900002088800505D56868E16A20F40000084336
:1039100068602078000605D5E86A616A20F4F870CE
:103920000843E8622088C00505D5E86AA16A20F44A
:1039300078500843E8622088C00405D5286B216BC5
:1039400020F48070084328632088800405D5286B04
:10395000616B20F4007008432863002058E70000E2
:103960000010024000700040000042422DE9F04784
:10397000DFF8708105460E46D8F8000000F0070019
:10398000B0420CD2D8F8001021F007013143C8F83A
:103990000010D8F8000000F00700B04277D1287876
:1039A000514C800705D56068A96820F0F0000843F5
:1039B00060602878C00759D06968012001290DD0BE
:1039C000022929D05FF0020393FAA3F2B2FA82F23D
:1039D00042F02002520904D0226803E04FF4003381
:1039E000F2E7626A93FAA3F3B3FA83F303F01F03D7
:1039F000984002424BD0606820F0030008436060AA
:103A0000FFF716FC6968074641F2883001290DD09E
:103A10000229814617D025E04FF00073D4E700BF9C
:103A2000FFF706FCC11B494501D918E081466068D3
:103A3000C0F381000128F3D118E000BFFFF7F8FBC5
:103A4000C11B49450BD86068C0F381000228F5D13D
:103A50000CE000BFFFF7ECFBC11B494502D9032076
:103A6000BDE8F087606810F00C0FF3D1D8F80010B3
:103A7000404601F00701B1420BD9016821F007016E
:103A800031430160006800F00700B04201D001201E
:103A9000E6E72878400705D56068E96820F4E0602B
:103AA000084360602878000706D56068296920F41B
:103AB000605040EAC100606000F052F86168F02296
:103AC00092FAA2F201F0F001B2FA82F2D140074A72
:103AD000515CC840064908600020FFF7B1FD002096
:103AE000BEE70000002002400010024064A400086D
:103AF000000100200148006870470000000100201C
:103B000008480949006849684FF4E06292FAA2F255
:103B100001F4E061B2FA82F2D140044A515CC8403B
:103B200070470000000100200010024074A400084B
:103B300008480949006849684FF4605292FAA2F2B5
:103B400001F46051B2FA82F2D140044A515CC8409B
:103B500070470000000100200010024074A400081B
:103B6000144B10B55A68144802F00C0104291DD0FA
:103B700008291BD14FF4701494FAA4F402F47011C4
:103B8000B4FA84F4E1400D4CDB6A615C0F2494FAD2
:103B9000A4F403F00F03B4FA84F4E340074C1034A8
:103BA000D203E35C03D5B0FBF3F0484310BD0448F7
:103BB000484310BD0010024000127A00048600083D
:103BC00000093D002DE9F84F05460078F74EC00783
:103BD0004FF0010425D070686704C0F3810001280C
:103BE00007D07068C0F3810002281BD17068C00341
:103BF00018D597FAA7F0B0FA80F040F020004009FD
:103C000001D0306800E0706A97FAA7F1B1FA81F14B
:103C100001F01F0104FA01F1084264D0686800282D
:103C20007DD060E06868B0F5803F0BD010B1B0F592
:103C3000A02F17D0306820F480303060306820F436
:103C4000802002E0306840F480303060F06AA9687B
:103C500020F00F000843F062686828B3FFF7E8FA25
:103C600080460BE0306840F480203060EAE700BF17
:103C7000FFF7DEFAA0EB0800642871D897FAA7F0E6
:103C8000B0FA80F040F02000400901D0306800E038
:103C9000706A97FAA7F1B1FA81F101F01F0104FAF5
:103CA00001F10842E4D01EE0FFF7C2FA804605E0C9
:103CB000FFF7BEFAA0EB08006428DED897FAA7F059
:103CC000B0FA80F040F02000400901D0306800E0F8
:103CD000706A97FAA7F1B1FA81F101F01F0104FAB5
:103CE00001F10842E4D12878DFF8C48280074FF060
:103CF000000A4FF0020732D570684FF0F80B10F051
:103D00000C0F07D07068C0F38100022829D17068B9
:103D1000C00326D497FAA7F0B0FA80F000E08BE059
:103D200040F02000400901D0306800E0706A97FA46
:103D3000A7F1B1FA81F101F01F0104FA01F1084283
:103D400002D02869012877D130689BFAABF2696903
:103D5000B2FA82F220F0F8009140084330605AE055
:103D600064E1286988B394FAA4F0B0FA80F048F8C6
:103D70002040FFF75DFA814606E000BFFFF758FAE2
:103D8000A0EB0900022898D897FAA7F0B0FA80F0C3
:103D900040F02000400901D0306800E0706A97FAD6
:103DA000A7F1B1FA81F101F01F0104FA01F1084213
:103DB000E4D030689BFAABF220F0F8016869B2FAFF
:103DC00082F290400143316025E0FFE794FAA4F1CC
:103DD000B1FA81F148F821A0FFF72AFA814605E0FF
:103DE000FFF726FAA0EB09000228CCD897FAA7F033
:103DF000B0FA80F040F02000400901D0306800E0C7
:103E0000706A97FAA7F1B1FA81F101F01F0104FA83
:103E100001F10842E4D1287800076CD5A869A8B35D
:103E200094FAA4F0B0FA80F008EB8000C0F8804467
:103E3000FFF7FEF9814607E08AE100BFFFF7F8F9D6
:103E4000A0EB090002289ED897FAA7F0B0FA80F0FC
:103E500040F06000B4EB501F01D130680BE097FADE
:103E6000A7F0B0FA80F040F06000B7EB501F01D12E
:103E7000306A00E0706A97FAA7F1B1FA81F101F0B7
:103E80001F0104FA01F21042D8D034E0FFE794FA9F
:103E9000A4F1B1FA81F108EB8101C1F880A4FFF728
:103EA000C7F9814606E000BFFFF7C2F9A0EB0900A1
:103EB00002289AD897FAA7F0B0FA80F040F0600094
:103EC000B4EB501F01D130680BE097FAA7F0B0FABD
:103ED00080F040F06000B7EB501F01D1306A00E085
:103EE000706A97FAA7F1B1FA81F101F01F0104FAA3
:103EF00001F21042D8D12878400774D5F0694FF00C
:103F00000009C00009D4F06940F08050F061F06908
:103F10004FF0010900F08050009026480168C90563
:103F200012D4016841F480710160FFF781F9834682
:103F300006E000BFFFF77CF9A0EB0B00642875D802
:103F40001C480068C005F5D5E86801280AD008B10A
:103F5000052811D0306A20F001003062306A20F06C
:103F6000040002E0306A40F001003062E868E0B12D
:103F7000FFF75EF983460DE0306A40F004003062DE
:103F8000F0E700BFFFF754F9A0EB0B0141F28830D6
:103F900081424BD897FAA7F0B0FA80F040F0400089
:103FA000B4EB501F08D1306812E01DE00010024051
:103FB000000042420070004097FAA7F0B0FA80F08B
:103FC00040F04000B7EB501F01D1306A00E0706A4A
:103FD00097FAA7F1B1FA81F101F01F0104FA01F299
:103FE0001042CFD02EE034E0FFF722F9834607E0FD
:103FF000FFF71EF9A0EB0B0141F28830814215D882
:1040000097FAA7F0B0FA80F040F04000B4EB501FF0
:1040100001D130680CE097FAA7F0B0FA80F040F0D8
:104020004000B7EB501F02D1306A01E083E0706AB4
:1040300097FAA7F1B1FA81F101F01F0104FA01F238
:104040001042D5D1B9F1000F03D0F06920F08050B3
:10405000F061E86980B37168C1F38101022977D00A
:104060004FF080714F00022809D091FAA1F0B0FA08
:1040700080F048F820A0FFF7DBF805465EE08946AF
:1040800091FAA1F15046B1FA81F1C24648F82100F7
:10409000FFF7CEF8804605E0FFF7CAF8A0EB08006E
:1040A000022848D897FAA7F0B0FA80F040F0200034
:1040B000400902D0306801E056E0706A97FAA7F133
:1040C000B1FA81F101F01F0104FA01F10842E3D1D4
:1040D000D5E908100843716821F474110843706031
:1040E00099FAA9F0B0FA80F04AF82040FFF7A0F85A
:1040F000054604E0FFF79CF8401B02281BD897FAFE
:10410000A7F0B0FA80F040F02000400901D03068FC
:1041100000E0706A97FAA7F1B1FA81F101F01F018E
:1041200004FA01F10842E5D01EE000BFFFF780F875
:10413000401B022802D90320BDE8F88F97FAA7F0A8
:10414000B0FA80F040F02000400902D0306801E071
:104150000CE0706A97FAA7F1B1FA81F101F01F0142
:1041600004FA01F10842E1D10020E5E70120E3E78C
:104170002DE9F041040004D094F85D00002518B149
:1041800007E00120BDE8F08184F85C50204600F093
:104190004FF8022384F85D302068016821F0400167
:1041A0000160E0684FF4E066B04201D9002101E00F
:1041B0004FF48051B0F5706F02D0B04200D0A562CC
:1041C000276B012227B9B04201D9236300E02263A3
:1041D000D4E901031843D4E9043633431843238B4D
:1041E00003F400731843E3691843236A1843A36A6E
:1041F000184323681860206B022804D120680368E4
:1042000043F400630360636B606AA6691843042784
:10421000E36807EA164633431843084321684860B9
:104220002168E06A0861256684F85D200020A9E71E
:10423000F0B5224B026800242148022103250526FF
:1042400087B09A4224D1826942F4805282618069A7
:104250004FF0904700F480500590A0208DE8730047
:1042600069463846FEF716FF4020009001AA12204A
:1042700082E8710069463846FEF70CFF1020009076
:1042800001AA012082E8310069463846049410E012
:104290000C4B9A420FD1C26942F48042C261C0699C
:1042A00000F4804005904FF470408DE8730069463B
:1042B0000548FEF7EFFE07B0F0BD000000300140FA
:1042C0000010024000380040000400482DE9F84F7B
:1042D0001F4691468A4604460A9EFEF7A9FF80467D
:1042E00094F85C000025012809D04FF0010B84F8F8
:1042F0005CB094F85D00012804D0022538E102206A
:10430000BDE8F88FBAF1000F7DD0B9F1000FFBD0F6
:10431000002FF9D0052084F85D0000202066C4F845
:104320004090A4F84670A4F84470C4F838A0E78719
:10433000A787A06A4FF40057B8420AD120680168E5
:104340004DF6FF72114001602068016841F4005190
:104350000160E0684FF4E061884203D8B4F8460099
:10436000012804D92068426822F4805203E02068C2
:10437000426842F48052426020680268520603D4C8
:10438000026842F040020260E068884240D8A5E03E
:1043900010B32068816889071ED5A16B0988C160A8
:1043A000A06B801CA063E08F401E0004000CE0871F
:1043B00012D1A06AB8420FD120680168490706D41B
:1043C0004168090703D5016841F400710160206864
:1043D000016841F480510160B4F8460070B1206872
:1043E0008168C9070AD0C068216C0880206C801CD5
:1043F0002064B4F84600401EA4F84600701C07D0A4
:10440000FEF716FF00E0B2E0A0EB0800B04263D276
:10441000E08F0028BCD1B4F846100029B8D164E080
:1044200058B321688A68920727D50128A06B07D95D
:104430000088C860A06B801CA063E08F801E05E030
:10444000421CA26300780873E08F401EE0870004DE
:10445000000C12D1A06AB8420FD120680168490748
:1044600006D44168090703D5016841F40071016071
:104470002068016841F480510160B4F8461019B316
:1044800020688268D2071FD0012913D9C068216C27
:104490000880206C801C2064B4F84600801E80B226
:1044A000A4F8460001280FD82068416841F48051E3
:1044B000416009E0027B206C411C21640270B4F869
:1044C0004600401EA4F84600701C07D0FEF7B0FE60
:1044D000A0EB0800B04201D3032549E0E08F00289B
:1044E0009ED1B4F8461000299AD1A06AB84228D1CA
:1044F000012233461146204600F05EFBB0B9E06869
:10450000B0F5706F206808D0007BADF80000BDF8F2
:104510000000206B022802D013E0C0680DE00122E9
:1045200033461146204600F047FB20B1206E40F094
:1045300002002066D0E72068007BADF80000BDF8DF
:10454000000020688168C943C90607D4216E41F084
:10455000020121664FF6EF71816001253146204648
:1045600000F0C1FA08B120202066206E00B10125BC
:1045700084F85DB0002084F85C002846C0E64FF067
:10458000E0210428086903D020F004000861704786
:1045900040F00400FAE7704710B5401EB0F1807F8C
:1045A00001D3012010BD4FF0E02460610F2160179E
:1045B00000F088FA0020A06107202061002010BDD3
:1045C00010B5FFF7E8FF10BD704710B5040003D029
:1045D00094F8690010B107E0012010BD002084F8B4
:1045E0006800204600F026F8242084F8690020683E
:1045F000016821F001010160204600F099FC0128CA
:10460000EBD0606A10B1204600F0D8FB206841680A
:1046100021F4904141602068816821F02A01816085
:104620002068016841F0010101602046BDE81040AA
:1046300000F028BC00B500680E4987B0884217D149
:104640000D48C16941F40031C161C069694600F497
:10465000003005900C200090022001900120029073
:1046600003200390072004904FF09040FEF712FDC6
:1046700007B000BD004400400010024070B5044681
:1046800090F86A00202830D169B362B394F86800CA
:1046900001282AD0012084F868006165A4F8582018
:1046A0000025E566222084F86A0054F8643F10482B
:1046B000986254F818390F48D862A3690E481863F5
:1046C000084654F84C1C1346A6690246304624316D
:1046D000FEF70EFC54F84C0C816841F040018160FB
:1046E0002577002070BD012070BD022070BD000044
:1046F000FD4E0008274F0008D74E0008704770474E
:104700002DE9F041044690F8690098460D462028AE
:1047100046D105B3FAB194F86800012840D00120D1
:1047200084F868000026E666212084F86900A4F871
:104730005020A4F852204FF4805700BFB4F8520024
:104740004346401EA4F8520000228021204600F07B
:10475000D9FCB8B902E00120BDE8F081A068B842F8
:1047600001D1206980B115F8010B21680885B4F8E2
:1047700052000028E2D1434600224021204600F0AA
:10478000C1FC30B10320E7E735F8020BC0F30800A5
:10479000EBE7202084F8690084F868600020DBE7FC
:1047A0000220D9E701688A69D243920701D4002226
:1047B0008A6200688169C943C90703D0816941F0F1
:1047C00001018161704700002DE9F0410446006855
:1047D00090460E468069C043C0062ED4002520278F
:1047E00020688069C043800611D5701CF8D02EB1B6
:1047F000FEF71EFDA0EB0800B042F1D984F841702D
:1048000084F8425084F840500320BDE8F0812168CC
:104810001020C8612068C7612046FFF7C3FF54F825
:10482000440B4168064A11404160042044F82009C5
:104830006777A57725770120E7E70020E5E7000007
:1048400000E800FE70B50568049E6C6805480440E9
:10485000C1F3090040EA0240184330432043686036
:1048600070BD0000009800FC2DE9F0411D46174680
:104870000E460446DDF8188013E0681C11D02DB1F7
:10488000FEF7D6FCA0EB0800A8420AD9202084F845
:104890004100002084F8420084F840000320BDE875
:1048A000F0812068806936EA000004D00020B84218
:1048B000E3D00020F3E70120F9E700002DE9F04103
:1048C000002690460F46044620252DE042463946F4
:1048D0002046FFF779FF10B10120BDE8F081206884
:1048E0008069C04380060ED42068C5612068416895
:1048F000114A11404160666484F8415084F8426076
:1049000084F84060E8E72FB1FEF792FCA0EB0800C6
:10491000B84209D954F8440F40F0200044F8040983
:10492000657026700320D8E720688069C04340077F
:10493000CCD40020D1E7000000E800FE70B5164698
:104940000D4604461AE0324629462046FFF73CFF52
:1049500008B1012070BD25B1FEF76AFC801BA8429A
:104960000CD954F8440F40F0200044F804092020EA
:1049700060700020A0702070032070BD20688069E6
:10498000C0438006DFD4002070BD70B516460D46CA
:1049900004461CE0324629462046FFF715FF08B1C1
:1049A000012070BD681C12D025B1FEF741FC801BB0
:1049B000A8420CD954F8440F40F0200044F80409F0
:1049C000202060700020A0702070032070BD20683F
:1049D0008069C0438007DDD4002070BD0C4810B54D
:1049E0000A4901603021416000218160C16001619C
:1049F00041618161C161016241628162C162FDF711
:104A000029FF002800D0FEE710BD00000064004030
:104A10008C0C00202DE9F041284886B0416941F412
:104A200080014161416901F480010591416941F4CE
:104A300000314161416901F400310591416941F45E
:104A4000802141614069DFF8788000F4802040F6E1
:104A50002F540590002221464046FEF7E4FB4FF418
:104A600000464FF09047002231463846FEF7DBFB08
:104A70000125CDE90045002402946946404603948F
:104A8000FEF708FB2802CDE9000469463846029487
:104A9000FEF700FB0096CDE90154694638460394C1
:104AA000FEF7F8FA1020CDE900046946404602946A
:104AB000FEF7F0FA06B0BDE8F081000000100240F9
:104AC000000400480907090E002806DA00F00F006C
:104AD00000F1E02080F8141D704700F1E02080F81C
:104AE00000147047704770B50D460B46044600220F
:104AF0004FF4C05100F00FF838B92B460022802146
:104B0000204600F059F8002804D0206E40F0200024
:104B10002066032070BD2DE9F8431D4617460E465A
:104B20000446FEF785FB80464FF4C0693DE04E45E4
:104B300005D127B9007B8DF800009DF80000681CA6
:104B400033D02DB1FEF774FBA0EB0800A8422CD3A4
:104B50002068416821F0E00141606068B0F5827F23
:104B60000BD1A068B0F5004F02D0B0F5806F04D132
:104B70002068016821F040010160A06AB0F5005F83
:104B80000AD1206801684DF6FF721140016020686B
:104B9000016841F400510160012084F85D000020AB
:104BA00084F85C000320BDE8F88320688168314008
:104BB000B942BCD10020F6E72DE9F0411D4616466A
:104BC0000F460446FEF734FB804635E0681C33D0C0
:104BD0002DB1FEF72DFBA0EB0800A8422CD32068D6
:104BE000416821F0E00141606068B0F5827F0BD13F
:104BF000A068B0F5004F02D0B0F5806F04D12068F6
:104C0000016821F040010160A06AB0F5005F0AD19F
:104C1000206801684DF6FF7211400160206801684C
:104C200041F400510160012084F85D00002084F807
:104C30005C000320BDE8F081206880683840B04205
:104C4000C4D10020F6E7704710B5FEF7DFFCBDE8E1
:104C50001040FFF7B5BC70B59EB0032000904FF434
:104C600080300024CDE901040226CDE907604FF42D
:104C7000E010099001211025CDE904156846FEF7E2
:104C8000A1FF00B1FEE70F20CDE919064FF48060C7
:104C9000CDE91B40022119A81D94FEF767FE00B163
:104CA000FEE7E2200A904FF4807013900D942020CC
:104CB000CDE911500AA8FEF74DFD00B1FEE7FEF761
:104CC00019FF4FF47A71B0FBF1F0FFF765FC042097
:104CD000FFF755FC00221146501EFEF709FD1EB0DD
:104CE00070BD000030B516494868164A10F00C0334
:104CF000154803D0042B01D0082B01D0026015E029
:104D00004B684C6803F470134FF0020514F4803FB5
:104D100005EB934307D0CC6A04F00F04641CB2FB8C
:104D2000F4F25A43EAE7094A534303604968084AE0
:104D3000C1F30311515C0268CA40026030BD00003B
:104D40000010024000127A000001002000093D001E
:104D500064A400081448016841F47001016013481C
:104D6000016841F0010101604168114A1140416050
:104D70000168104A11400160016821F4802101603E
:104D8000416821F4FE014160C16A21F00F01C16256
:104D9000016B094A11400163002181600249C0038F
:104DA000803908607047000088ED00E00010024084
:104DB0000CC07FF8FFFFF6FECCFC00FF90F824103B
:104DC000C90706D001684A68836A22F400321A4390
:104DD0004A6090F82410890706D501684A68C36ABA
:104DE00022F480321A434A6090F82410490706D50D
:104DF00001684A68036B22F480221A434A6090F8E3
:104E00002410090706D501684A68436B22F4004262
:104E10001A434A6090F82410C90606D501688A68CA
:104E2000836B22F480521A438A6090F8241089061A
:104E300006D501688A68C36B22F400521A438A605F
:104E400090F82410490611D501684A68036C22F4D1
:104E500080121A434A60016CB1F5801F06D10168C7
:104E60004A68436C22F4C0021A434A6090F8241046
:104E7000090606D501684A68806C22F400220243C4
:104E80004A60704770B500250446C5660068006832
:104E90004FF47A76000707D5334600224FF400110D
:104EA000204600F02FF958B920680068400709D55E
:104EB000334600224FF48001204600F023F908B168
:104EC000032070BD202084F8690084F86A0084F80B
:104ED0006850002070BD10B5406A0021A0F85A103B
:104EE000A0F85210202180F8691080F86A10C16E75
:104EF00041F01001C166FFF767FB10BD10B5014618
:104F0000406A0968096889060AD40021A0F85A1085
:104F100001688A6822F040028A60202180F86A10C5
:104F2000FFF7ECFB10BD10B5406AFFF7E8FB10BDC2
:104F30002DE9F041044610202369A268E6691A436E
:104F40006369002133431A4323680D461E6849F202
:104F50000C67BE4316431E6022685368E66823F45C
:104F6000405333435360236AA2691A4323689E68FF
:104F700026F4306616439E605A4F22685A4B060349
:104F8000BA420CD11B6B13F0030306D0012B4DD09A
:104F9000022B4DD0032B4CD146E0012049E0534F6A
:104FA000BA420CD11B6B13F440333BD0B3423DD01B
:104FB000B3F5003F3CD0B3F5403F3AD134E04C4F1D
:104FC000BA420DD11B6B13F440232BD0B3F5802FC5
:104FD0002CD0B3F5002F2BD0B3F5402F29D123E0EF
:104FE000444FBA420DD11B6B13F440131AD0B3F5E2
:104FF000801F1BD0B3F5001F1AD0B3F5401F18D186
:1050000012E03D4FBA4214D11B6B13F4400309D098
:10501000B3F5800F0AD0B3F5000F09D0B3F5400FF8
:1050200007D101E0002004E0022002E0042000E0BB
:105030000820E7694FF400439F4226D109281DD27A
:10504000DFE800F00508121C151C1C1C1800FEF7F8
:1050500057FD01E0FEF76CFD4100606801EB500177
:10506000B1FBF0F081B20AE024496068F6E7FEF790
:1050700077FDF1E7606806EB5001F1E7012521F0CB
:105080000F00C1F3420108431CE0092825D2DFE8E4
:1050900000F005080B24102424241C00FEF730FD2A
:1050A00009E0FEF745FD06E01549606801EB500197
:1050B0000EE0FEF755FD0146606801EB5001B1FBC3
:1050C000F0F080B22168C86008E0606803EB50012E
:1050D000B1FBF0F080B2D06000E001252846BDE8C9
:1050E000F081000000380140001002400044004000
:1050F00000480040004C0040005000400024F400F4
:1051000000127A002DE9F0471D4690460E460446EF
:10511000FEF78EF807465FEA08004FF000094FF0EF
:10512000200808D032E0681C05D095B1FEF780F861
:10513000C01BA8420DD82068C06936EA0000F2D131
:1051400029E0681C22D025B1FEF772F8C01BA842E6
:105150001CD92068016821F0800101602068016885
:1051600021F0200101602068016821F48071016054
:105170002068816821F00101816084F8698084F8E9
:105180006A8084F868900320BDE8F0872068C069D1
:1051900036EA0000D5D00020F6E700000FB4024642
:1051A00010B504A9034B039800F0B8F810BC5DF8E3
:1051B00014FB0000CD6E00082DE9FF5FDDE9022041
:1051C000010DDDF838B0024318D044F61050A1F2BA
:1051D000FF3141430D140F98012820D0A5EB0B009F
:1051E000401C5FEA000A4FF00004474EDFF81C91B4
:1051F000A046504616D5CAF1000728E00F980124B2
:1052000043A2012808D0002100980F9BC0E900218B
:10521000C0E90243BDE8FF9F6FEA0B01F4E7CBF161
:105220000000DEE7074612E0F80707D022463346C3
:1052300040464946FCF737FB8046894622463346BE
:1052400010461946FCF72FFB04460E467F10002F30
:10525000EAD1DDE90201BAF1000F42464B4602DA1B
:10526000FCF721FB01E0FCF790FB04460E46002210
:10527000284BFCF711FE03D84FF0FF30014607E042
:105280000022254B20463146FCF747FDFCF7ECFD9C
:10529000102409E0002C0ADB0A220023FCF778FC2A
:1052A000019B30321A55641E50EA0102F2D1641C8F
:1052B000019AC4F1110314440F9A012A03D0012268
:1052C00008430DD10AE0084304D000204FF0110B31
:1052D0000F9080E7A3EB0B056D1E0DE05B4504DD31
:1052E0004FF0000205F1010504E003DA4FF000027F
:1052F000A5F10105002AECD000980F99C0E9023110
:10530000C0E9004586E70000000024400000F03FAF
:10531000300000000000F0430000E03F2DE9FF4FA7
:1053200095B09B468946064600250FE2252877D191
:1053300000242746F84A0121059400E0044316F8AA
:10534000013F203B01FA03F01042F7D130782A28C0
:1053500011D06FF02F033078A0F13002092A16D84F
:10536000059A44F0020402EB820203EB420210446D
:10537000761C0590EFE759F8042B0592002A03DA12
:10538000504244F40054059044F00204761C3078F6
:105390002E2816D116F8010F44F004042A280DD047
:1053A0006FF02F023078A0F13003092B09D807EBFA
:1053B000870302EB4303C718761CF3E759F8047B15
:1053C000761C30786C280FD006DC4C2817D0682863
:1053D0000DD06A2814D104E0742810D07A280FD197
:1053E0000DE044F400140AE044F4801401E044F4B5
:1053F00040147278824202D104F58014761C761C27
:10540000307866280BD013DC582877D009DC0028C8
:1054100075D04528F6D04628F4D047281AD19DE10A
:1054200018E0632835D0642879D0652812D195E139
:10543000702873D008DC6728F1D069286FD06E28F7
:105440000DD06F2806D1B5E073282CD0752875D003
:10545000782874D05A46179990476D1C75E1C4F3AB
:105460000250022809D003280DD0D9F800100428D2
:105470000DD00D6009F1040967E1D9F80010EA17B1
:10548000C1E90052F6E7D9F800100D80F2E70D707F
:10549000F0E719F8041B8DF8001000208DF80100CA
:1054A000EA46012003E059F804AB4FF0FF306107F2
:1054B0004FF0000102D40DE008F101018846B94225
:1054C0000FDA8045F8DB1AF808100029F4D108E05B
:1054D00008F1010188468142FADB1AF80810002918
:1054E000F6D105985B46A0EB080721463846179A87
:1054F00000F094FA284400EB080507E04DE029E1AC
:105500000DE01AF8010B5A4617999047B8F10108B7
:10551000F7D25B4621463846179A13E142E00A2249
:105520000092C4F302524FF0000A022A08D059F840
:1055300004CB032A4FEAEC710AD00DE029E02AE0FF
:1055400009F1070121F00702F2E802C1914609E0E2
:105550000FFA8CFC4FEAEC71042A03D14FFA8CFC51
:105560004FEAEC71002907DA0A460021DCF1000C51
:1055700061EB02012D2202E0220504D52B228DF8D9
:105580000420012203E0E20701D02022F7E7904641
:1055900059E00A2102E010220DE010214FF0000A2C
:1055A00000910BE010224FF0000A44F00404082799
:1055B000009203E008224FF0000A0092C4F3025266
:1055C000022A05D059F804CB0021032A08D009E0AB
:1055D00009F1070121F00702F2E802C1914605E056
:1055E0001FFA8CFC042A01D10CF0FF0C4FF00008CC
:1055F000220728D5702806D0009B83F0100353EAB9
:105600000A0305D00EE040228DF80420012208E0B4
:105610005CEA010206D030228DF804208DF80500E6
:1056200002229046009B83F0080353EA0A030AD142
:105630005CEA010201D1620705D530228DF8042011
:105640004FF001087F1E582804D034A003900EA804
:1056500002900DE036A0F9E753466046009AFCF749
:1056600097FA84460398825C0298401E029002706A
:105670005CEA0100F0D1029806A9081A00F1200A9C
:10568000600702D524F4803400E00127574502DD8D
:10569000A7EB0A0000E0002000EB0A01009005984B
:1056A0004144401A0590E00306D45B462146179A10
:1056B000059800F0B3F90544002706E001A85A4612
:1056C000C05D179990476D1C7F1C4745F6DBE003D2
:1056D0000CD55B462146179A059800F09FF90544C2
:1056E00004E030205A46179990476D1C0099481ED7
:1056F00000900029F5DC08E0029802995A460078EB
:10570000491C0291179990476D1CBAF10001AAF14A
:10571000010AF1DC65E10000092801003031323373
:1057200034353637383961626364656600000000DD
:1057300030313233343536373839414243444546C7
:105740000000000000F058F90544761C307800286D
:105750007FF4ECAD19B02846BDE8F08F620700D4A5
:10576000062709F1070222F0070CFCE80223E146B4
:1057700003F000485FEA080C02D00FF2702C0DE035
:105780005FEA045C02D50FF2682C07E05FEAC47C94
:1057900002D00FF2602C01E0AFF2700C4FF0FF3836
:1057A00023F00043CDF850C065280CD006DC452816
:1057B00009D046281DD047283DD13DE0662818D0A5
:1057C00067287ED138E00021112F01DB112000E095
:1057D000781CCDE9000106A90EA8FFF7EDFCDDE974
:1057E0000F010E9A03910021009207F1010A049122
:1057F0004DE04FF000400097CDE9011006A90EA83A
:10580000FFF7DAFCDDE90F0203920E9B11990022EB
:10581000DDF80CA00093049211B9791C00EB010A89
:10582000B7EB0A0004D4C0F1FF3007F1010A04907D
:10583000AAEB0700019044E0012F00DA01270021C4
:10584000112F01DD112000E03846CDE9000106A945
:105850000EA8FFF7B1FCDDE90F010E9A03910021BC
:1058600004910092BA4621070CD40399514500DAFD
:105870008A46BAF1010F05DD009AAAF10101515CD7
:10588000302908D0B84202DA10F1040F06DA0121FB
:10589000CDE9011015E0AAF10101E9E7002805DCD6
:1058A000049901440491AAEB000102E0411C514516
:1058B00000DD8A460499401A401C01904FF00040D8
:1058C0000290200704D40198504501DBCDF80480F4
:1058D00000208DF84F0002980DF14F07B0F1004FF6
:1058E00025D02B200E9002984FF0020800280CDAE9
:1058F000404202902D200E9007E00A210298FCF70A
:1059000031F93031029007F8011DB8F10001A8F11A
:105910000108F2DC02980028EFD1791E0E98087079
:10592000307800F0200040F0450007F8020D12A882
:10593000C01B00F107081498007800B1012000EBAB
:105940000A01019801EBE07105984144401A401E9C
:105950000590E00306D45B462146179A059800F0AF
:105960005DF805441498007818B15A461799904785
:105970006D1CE00324D55B462146179A059800F07C
:105980004DF805441CE00498002807DBDDE903011D
:10599000884203DD0098405C179901E01799302098
:1059A0005A469047049805F10105401C049001985F
:1059B000401E019004D12E205A46179990476D1C25
:1059C000BAF10001AAF1010ADDDC05E017F8010BCC
:1059D0005A46179990476D1CB8F10001A8F10108CB
:1059E000F4DC5B462146179A0598ABE62D000000D3
:1059F0002B000000200000002DE9F04104460025A6
:105A00001E461746880404D405E039462020B047D6
:105A10006D1C641EF9D52846BDE8F0812DE9F041E2
:105A2000044600251E469046C80301D5302700E0F5
:105A30002027880404D505E041463846B0476D1C50
:105A4000641EF9D52846BDE8F081000070B5054612
:105A50001148FCF757FE114C0020606020700E4882
:105A6000FCF70AFD6168084460602078401CC0B201
:105A700020702828F3D360682821B0FBF1F080B2B1
:105A800000EE100ADFED060A0020B8EE400A20EE14
:105A9000200A85ED000A70BD3801002004000020B6
:105AA00014AE653CF0B500242F4E304D8FB0032767
:105AB0006A6904EB440106EBC10043681A436A615A
:105AC000C2680292826801920269CDE903274069A7
:105AD000059056F8310001A9FDF7DCFA641C14F0BA
:105AE000FF04E5D0686940F08050686168694FF054
:105AF000A04100F0805000901D4800240126C0E91C
:105B000000148460046144620463C661C460446339
:105B10004461846106628463FCF7B2FC00B1FEE775
:105B20000220CDE908060620CDE90A040C9408A954
:105B30000F480D94FCF7D6FA00B1FEE7686940F40F
:105B400080206861CDE90264CDE904740420094C29
:105B5000019001A92046FDF79DFA0122042120466B
:105B6000FDF761FB0FB0F0BD248600080010024075
:105B700038010020000400484FF008210A880C4931
:105B8000098860B1012810D14EF6EE6009B11AB152
:105B900007E0824209D006E0814204D005E022B14C
:105BA00009B1AB207047012070470020704700000A
:105BB000001000081FB5002003904FF0082400904B
:105BC0000121CDE90141204600F090F928B903A94F
:105BD0006846FDF7B9F9002813D100221346214683
:105BE0000120FDF705FA00280BD10748019000F0CD
:105BF0007DF928B903A96846FDF7A6F9002800D168
:105C0000002004B010BD0000001000082DE9FF5F67
:105C10005C4E00244FF0082870800394A146B8F829
:105C20000010671E4A46584D28884FF0010A8DE83B
:105C300004053A0CDFF854B100296AD0A1F6EE61F0
:105C4000B1F5604122D001F6EF61B1F5005F1AD1E4
:105C500040B1A0F56E41EE3915D1404600F046F94D
:105C600038B10CE0404686E003A96846FDF76CF9C0
:105C700049E003A96846FDF767F9002846D10022EC
:105C8000134629463CE0FFF795FF3CE010B39042F5
:105C9000F9D12846019500F029F940B32DE03C48A0
:105CA0000288DBF8000030F81400824200D127B2ED
:105CB000BC420DD0334900F0CBF8012808D0DBF806
:105CC0000000318830F8140000F0E6F800281DD1FB
:105CD000641CA4B270888442E1D30022134641467A
:105CE0000120FDF785F9002810D128463FE003A9DF
:105CF0006846FDF729F9002808D1002213464146DD
:105D00000120FDF775F9002800D1002004B0BDE89E
:105D1000F09F0028B7D090421DD1284601952AE077
:105D20001948C188DBF800005D4630F81400814254
:105D300000D127B2BC420CD0124900F089F80128EA
:105D400007D02868318830F8140000F0A5F8002842
:105D5000DCD1641CA4B270888442E1D300221346D3
:105D600009490120FDF744F90028CFD14046CDE98B
:105D70000090CDF808A000F0B9F800283FF474AF07
:105D8000C3E70000100000200010000828000020D9
:105D9000060800082DE9FF47002682464FF0082438
:105DA0000F462546B04630460396FFF7E5FE2549E7
:105DB000012804D028B1AB2004B0BDE8F0870C4620
:105DC00000E00D464EF6EE62002329460120FDF765
:105DD0000FF90028F0D13946504600F05DF8002850
:105DE000EAD1DFF86490194F16E000BFD9F800003F
:105DF00030F8160050450DD0144900F029F801285C
:105E000008D0D9F80000398830F8160000F044F8BE
:105E10000028D1D1761CB6B278888642E6D301201C
:105E2000CDF80080CDE9014003A96846FDF78CF864
:105E30000028C1D10022134629460120FDF7D8F8D9
:105E4000BAE7000000100008280000201000002021
:105E50002DE9F04106460D4601244FF008270020A9
:105E6000FFF78AFEAB2812D00A4A07EBC02102EBEB
:105E7000C022891C08E01088B04204D132F8020C1C
:105E80002880002402E0121F8A42F4D82046BDE890
:105E9000F0810000FE0F000870B506460D464FF079
:105EA00008240120FFF768FEAB280CD00E4904EB54
:105EB000C02401EBC02003E02168491C04D0241D4C
:105EC0008442F9D3802070BD2A4600232146012058
:105ED000FDF78EF80028F6D1A11C3246BDE87040CF
:105EE00000230120FDF784B8FF0F000810B5012141
:105EF0004FF6FF74054B05E00288A24201D0002155
:105F000002E0001D9842F7D9084610BDFF0F0008B7
:105F100070B50C460546FFF7BFFF802805D1214626
:105F20002846BDE87040FFF735BF70BDF0B50025CD
:105F3000204C214E89B00327626905EB450106EB31
:105F4000C10043681A436261C26803928268029288
:105F50000269CDE904274069069056F8310002A98C
:105F6000FDF798F86D1CEDB2022DE5D3E06940F421
:105F70000010E061E069114900F400100090104841
:105F8000012201600F4941600021C0E90212016154
:105F900041618161C1610162FDF77CF900B1FEE7F9
:105FA00000210748FDF74AF9002800D0FEE709B0B4
:105FB000F0BD0000001002403C8600080054004084
:105FC0008C010020FF5C700008B541EA400081B2FE
:105FD000642000900248FDF74DFA002008BD000043
:105FE0008C010020F0B50025204C214E89B00327FC
:105FF000626905EB450106EBC10043681A43626123
:10600000C2680392826802920269CDE9042740695E
:10601000069056F8310002A9FDF73CF86D1CEDB270
:10602000032DE5D3E06940F48000E061E0691149A7
:1060300000F4800000901048012201600F49416087
:106040000021C0E90212016141618161C161016207
:10605000FDF720F900B1FEE700210748FDF7EEF853
:10606000002800D0FEE709B0F0BD0000001002409B
:106070006C86000800580040D8010020FF5C7000CA
:1060800008B5012303EB400064230093134680B25C
:106090000A4601460248FDF755F9002008BD0000F8
:1060A000D801002008B541EA400081B26420009088
:1060B0000248FDF7DFF9002008BD0000D8010020EC
:1060C000F0B500240E4D0F4E85B003276A6904EB2E
:1060D000840106EB810043681A436A61C268019239
:1060E000826800920069CDE9020756F821006946EE
:1060F000FCF7D0FF641CE4B2032CE7D305B0F0BD7D
:1061000000100240B486000800EB8002064810B57B
:1061100000EB820150F82200098989B2FDF77EF870
:10612000002800D0012010BDB486000800EB8003D9
:1061300004480A4600EB830150F82300098989B21C
:10614000FDF771B8B4860008144810B51249016013
:106150004FF48271416000214FF4E062C0E9021205
:106160000222026101224261920482613822C0E966
:10617000072107224162C0E90A1201634163FDF76A
:10618000F7FF00B1FEE70122BDE8104010214FF0FB
:106190009040FDF748B80000003001402402002084
:1061A000F8B507460C46084601F01EFA06464FF0C1
:1061B0009045002210212846FDF735F86420009014
:1061C0002346324639460B48FEF780F80446094814
:1061D00090F85D100229FBD0012210212846FDF71E
:1061E00022F8304600F07EFE0CB10020F8BD012000
:1061F000F8BD0000240200202DE9F84F1F4680461C
:10620000CC1991460D46204601F0EEF98246204613
:1062100001F0EAF906462146FF225046FBF724FB2F
:106220002A4641465046FBF70DFB4FF090480022AE
:1062300010214046FCF7F7FF6420009023463246C9
:1062400051460F48FEF742F804460D4890F85D109D
:106250000229FBD0012210214046FCF7E4FF71190E
:106260003A464846FBF7EEFA504600F03BFE304611
:1062700000F038FE14B10020BDE8F88F0120FBE7E4
:106280002402002000EB400304480A4600EB83018F
:1062900050F82300098989B2FCF7C5BFF0860008D1
:1062A0002DE9F0430024114E114D85B027464FF0E3
:1062B00001084FF00309726904EB440005EB80010B
:1062C0004B681A437261CDF804808968CDE9027980
:1062D000009155F820006946FCF7DCFE641CE4B22E
:1062E000032CE8D305B0BDE8F083000000100240A5
:1062F000F086000870B5094D002400BF04EB84004F
:1063000005EB800155F820000989002289B2FCF7CD
:106310008AFF641CE4B2042CF0D370BD148700081B
:10632000F0B500240E4D0F4E85B003276A6904EBCB
:10633000840106EB810043681A436A61C2680192D6
:10634000826800920069CDE9020756F8210069468B
:10635000FCF7A0FE641CE4B2042CE7D305B0F0BD4A
:10636000001002401487000800EB800304480A462E
:1063700000EB830150F82300098989B2FCF753BF71
:10638000148700080A49096849680A4AC1F14003AC
:106390001168994209D0064B3C335B5C0370491C81
:1063A00001F03F001060012070470020704700009E
:1063B000F80200200C00002038B540212348FBF7EC
:1063C0005AFA2348416941F00101416140691F4C7B
:1063D00000F0010000903C3C1E480025C4E9000587
:1063E0008020C4E9025020202561C4E90550C00185
:1063F000E0612046FCF754FD00B1FEE71348164962
:10640000AC384466606201604FF4E131C0E90115C7
:106410000C21C560C0E904518561C5610562456212
:10642000FEF7D3F800B1FEE708494022A1F1AC0025
:10643000FEF724F98DF80000002211461020FDF728
:1064400057F9BDE838401020FDF746B93403002065
:10645000001002406C0002400044004001B50A23D5
:10646000012269460148FEF74BF908BD8802002069
:106470001CB5044610A001230068019001AA002168
:106480004020FFF70FFE022269464020FFF7F8FD8B
:106490009DF800009DF80110400240EA410001B261
:1064A00000EE101ADFED050A0020B8EEC00A20EE5B
:1064B000200A84ED000A1CBD01000000C0EC9EBB58
:1064C0001CB5044610A001230068019001AA002118
:1064D0004020FFF7E7FD022269464020FFF7D0FD8C
:1064E0009DF800009DF80110800140EA910100EE46
:1064F000101ADFED060A0020B8EE400A20EE200A4E
:1065000084ED000A1CBD0000020000006F12833BF6
:1065100008B5FFF767FD05A00323006800906A46F1
:1065200000214020FFF7BEFD08BD00000077FF00FE
:1065300070B504464120002207250FE08B5C5840CF
:106540000823060602D585EA400000E040005B1EF5
:10655000C0B213F0FF03F4D1521CD2B2A242EDD369
:1065600070BD000038B5044CE0802069009094E8CC
:106570000F0000F005FA38BD740300200FB40A497B
:1065800008B514220798087002A90848FBF75AF9C1
:10659000FFF7DAFD0548016900910FC800F0F0F936
:1065A00001B05DF814FB000014000020740300200B
:1065B000034808B5016900910FC800F0E1F908BD72
:1065C000740300202DE9F04107462DED048B88B0BF
:1065D00000244FF00108132001F006F80546802042
:1065E0008DF8000069460120FFF7A2FF8DF8010039
:1065F00004208DF8020001200DF10201FFF798FF41
:106600008DF8030013232A460421684600F04BFA54
:10661000AE7C29461220FFF78BFF864200D0A046B1
:10662000002001AE2A5D641C295D641C0B0702EB8F
:106630001352A2F5007226F810202A5D641C120184
:1066400002EB111106EB4002A1F50071801C518094
:106650000C28E7DB00249FED199B9FED1A8B00BFF0
:1066600036F81400FBF711FA53EC182BFBF71BF963
:1066700053EC192BFBF742FA0FD236F81400FBF754
:1066800004FAB0EE481AF0EE681A53EC112BFBF73F
:106690000AF9FBF74BFA47F8340007EBC400047122
:1066A000641CE4B20C2CDBD3284600F01BFC08B0C1
:1066B0004046BDEC048BBDE8F08100000000000006
:1066C00000002440FA7E6ABC7493583F30B50446FB
:1066D0002DED028B83B026486946007800F04EF815
:1066E00005469DF80000C00920709DF80000C0F329
:1066F000401060709DF80000C0F38010A0709DF8FD
:106700000000C0F30010E0709DF8000000F00700EA
:1067100020719DF802109DF8010001F00F0140EA80
:106720000120E0800020207260729DF804000001CA
:10673000A0F5F870FBF798F99FED0E8B53EC182B32
:10674000FBF7B1F8FBF7F2F9E0609DF805000001F6
:10675000A0F50070FBF788F953EC182BFBF7A3F8B2
:10676000FBF7E4F9206103B02846BDEC028B30BD95
:1067700014000020FA7E6ABC7493583F2DE9F84F4C
:1067800006468A4607274FF00109C0EBC60000F015
:106790002BFF0546002438E004F180008DF800004E
:1067A00069460120FFF7C4FE8DF8010002208DF834
:1067B000020001200DF10201FFF7BAFE8DF803007F
:1067C00017FB06F0C3B22A460421684600F06BF9B5
:1067D000C4EBC402002002EB0A012A5C0A54401CEC
:1067E000C0B2B842F9D3DFF834808A79062088F83D
:1067F0000220FFF79DFE88F8010098F80210814200
:1068000001D04FF00009641CE4B2B442C4D328465E
:1068100000F068FB4846BDE8F88F00001400002037
:106820002DE9F84F06468A4604274FF001098000FB
:1068300000F0DAFE0546002437E000BF04F18000D6
:106840008DF8000069460120FFF772FE8DF8010007
:106850000C208DF8020001200DF10201FFF768FE07
:106860008DF8030017FB06F0C3B22A4604216846E0
:1068700000F019F900200AEB84012A5C0A54401C3C
:10688000C0B2B842F9D3DFF83480CA78062088F85D
:106890000420FFF74DFE88F8030098F804108142A9
:1068A00001D04FF00009641CE4B2B442C6D32846BC
:1068B00000F018FB4846BDE8F88F000014000020E7
:1068C0002DE9F84F05460020288008800C466946CF
:1068D0000120FFF7A5FF84460098DFF864A020F0B0
:1068E0007F41002001EA0A060122164F0FE000BF97
:1068F0004FEA4009B5F8008002FA09F3334001D0AD
:1069000002FA00F348EA0308A5F80080401C3B7A2D
:106910008342EDDC0AEA510100200AE043002588A9
:1069200002FA03F30B4001D002FA00F31D43258065
:10693000401C3B7A8342F1DC6046BDE8F88F0000E2
:1069400055555500740300201D20AFF3008001B59C
:1069500082B002A99DF808008DF800000120FFF721
:10696000E7FD8DF801000221684600F007F80EBD32
:106970000148407AFFF7EBBF74030020FFF710BC1B
:1069800030B5284C00212DED028B83B040F6FF700E
:106990000123227A05E000BF03FA01F5A843491C50
:1069A000C9B28A42F8D821786278C90141EA8211D5
:1069B000A27841EA4211E27841EA0211227902F01A
:1069C000070211438DF80010E18802018DF80110D3
:1069D00042EA11218DF8021000098DF80300E068E9
:1069E000FBF779F89FED108B53EC182BFAF7CDFFDE
:1069F000FBF758F81F308DF804002069FBF76BF89F
:106A000053EC182BFAF7C1FFFBF74CF820308DF848
:106A1000050007486946007800F00CF803B0BDECAB
:106A2000028B30BD74030020FA7E6ABC7493983FD9
:106A3000140000202DE9F04780460B208A460627E7
:106A4000814600F0D1FD0446002525E005F18000D7
:106A5000207021460120FFF76BFD60700120A070BF
:106A6000A11CFFF765FDE070042605EB4501002041
:106A70000AEB41010A5CA255761C401CC0B2F6B27A
:106A8000B842F7D33846FFF753FDA0554946204694
:106A9000FFF774FF6D1CEDB24545D7D32046BDE826
:106AA000F04700F01FBAFFF7A7BB000010B54FF486
:106AB000806421460448FAF7DEFE2146BDE8104016
:106AC000FF220248FAF7D0BEAA070020AA0300203E
:106AD00008B5002100918DF80100044802236A46A0
:106AE00090F9000080B2FFF76FFA08BD1A0000208D
:106AF0002DE9F0411F4E204C40203070A08888B90D
:106B00002120FFF7E5FF0020FFF7E2FF7F20FFF7DE
:106B1000DFFF2220FFF7DCFF0020FFF7D9FF07206F
:106B2000FFF7D6FF15494FF48062A1F58060FAF7B0
:106B3000ADFE00281BD01148A7881022C519294690
:106B4000701CFAF77FFE0B4829461130384410229A
:106B5000FAF778FE94F90000112380B2054A00216B
:106B6000FFF732FAA0881030C0F30900A080BDE81A
:106B7000F0810000990300201A000020AA070020DD
:106B80002DE9F04190460C46054600F03DFB87B2EA
:106B900000F00AFB86B2002D3ADB00F035FBA8427C
:106BA00036DD002C34DB00F0FFFAA04230DD00F0CF
:106BB000F5FA012804D0022808D0032810D10AE0F1
:106BC0002046381A2C46401E05B209E0781B401EAC
:106BD00005B2301B02E028462546301A401E04B29A
:106BE0001A495FEA08024FF0010020D0012A11D0B3
:106BF000B8F1020F0CD1E21704EB5272D21005EB80
:106C0000C2120A4404F00703117898404140117001
:106C1000BDE8F081E21704EB5272D21005EBC2120C
:106C20000A4404F00703117898400143EFE7E217A4
:106C300004EB5272D21005EBC212114404F00703A8
:106C40000A78984082430A70E2E70000AA07002011
:106C50000A4601460148FAF7F5BD0000AA070020E0
:106C600070B50D460446FFF761F931484470057070
:106C7000AE20FFF72DFFD520FFF72AFF8020FFF77A
:106C800027FFA820FFF724FF3F20FFF721FFD32095
:106C9000FFF71EFF0020FFF71BFF4020FFF718FF44
:106CA0008D20FFF715FF012C38D01420FFF710FFBF
:106CB0002020FFF70DFF0020FFF70AFFA120FFF7BC
:106CC00007FFC820FFF704FFDA20FFF701FF1220BB
:106CD000FFF7FEFE8120FFF7FBFE012C20D0CF2026
:106CE000FFF7F6FED920FFF7F3FEF120FFF7F0FEE5
:106CF000DB20FFF7EDFE4020FFF7EAFEA420FFF7C0
:106D0000E7FEA620FFF7E4FE2E20FFF7E1FEAF200E
:106D1000FFF7DEFEBDE87040FFF7C8BE1020C5E7F4
:106D20009F20FFF7D5FED920FFF7D2FE2220DDE716
:106D30001A0000202DE9F04106460A46084600F0F8
:106D40001BF88046104600F027F805460024094F3E
:106D50000BE000BFBA6804EB080006EB440132F810
:106D60001000FFF775F8641CA4B2AC42F2D3002007
:106D7000BDE8F081200000204FF0FF3110B1012864
:106D800005D101E0002102E00248808801B288B20A
:106D90007047000020000020064A4FF0FF3110B17C
:106DA000012804D101E0908800E0D08801B288B2C7
:106DB000704700002000002038B5124CA088E18800
:106DC000084480B26080400000F00EFCA060FCF738
:106DD0004FF96088FEF71AFF00B1FEE700206288D5
:106DE000A16803E021F81000401C80B29042F9D362
:106DF000A06869460088FFF72BF8012801D12070B0
:106E0000607038BD200000202DE9F04106460A469A
:106E10000846FFF7B1FF80461046FFF7BDFF054665
:106E20000024094F0BE000BFBA6804EB080036F8F5
:106E3000141032F81000FFF76BF8641CA4B2AC42D7
:106E4000F2D30020BDE8F0812000002010B53221EF
:106E5000012000F0E9FA0649054A0860121D0549BB
:106E6000116018B1BDE81040FFF7A6BAFEE70000B8
:106E70002C000020796E000813B5054C2068416A8B
:106E8000884718B920686946026B904700201CBDEE
:106E90002C0000201CB50C4C2068816A884738B94A
:106EA00020686946826B90479DF80000FFF7D6FA8C
:106EB00001A8FFF767FA002805D003499DF80400F0
:106EC000091DFFF7D9FF1CBD2C00002010B50A6872
:106ED00004461AB1E0B29047204610BD4FF0FF3093
:106EE00010BD000010B5002821D0114B0022001F5A
:106EF000196803E0814203D80A4649680029F9D19C
:106F000052B11368841A9C4204D10068184410607E
:106F1000104602E0506000E0186039B102680B1AB8
:106F2000934203D10B681A4402604968416010BD66
:106F3000100100202DE9FF4F81468FB05D48884643
:106F4000DDE91CB44169D9B1087A0027101A4A68F2
:106F5000C0B202EBC000096805910188039190F866
:106F600002B0C178089190F905100E9190F90600D1
:106F70000D90012C02D90D9804910790002085E016
:106F8000B0F9083099454ADAB0F90A30984546DA3E
:106F900004EB440309EB4301012940D408EBC4018D
:106FA00001293CD4C07818B9B02A01D3521CD2B2FE
:106FB000414902EB8200002500EB010A01E0052DAA
